:100000000C9435000C945D000C945D000C945D0024
:100010000C945D000C945D000C945D000C942C0815
:100020000C945D000C945D000C945D000C94A4078E
:100030000C945D000C945D000C945D000C945D00CC
:100040000C9488000C945D000C945D000C945D0091
:100050000C945D000C945D000C945D000C945D00AC
:100060000C945D000C945D00C20C11241FBECFEFF8
:10007000D8E0DEBFCDBF11E0A0E0B1E0E6E8FBE1F3
:1000800002C005900D92A838B107D9F721E0A8E881
:10009000B1E001C01D92AA3BB207E1F710E0CAE649
:1000A000D0E004C02297FE010E941B0DC836D10784
:1000B000C9F70E94BD0C0C94C10D0C940000109265
:1000C00088011092890110928A0110928B0110927E
:1000D0008C0110928D0110928E0110928F0116BC2E
:1000E00085B5826085BDEEE6F0E080818160808329
:1000F00078940895F8945091880140918901309145
:100100008A0190918B017894652F742F832F089525
:100110001F920F920FB60F9211242F933F934F937C
:100120005F936F937F938F939F93AF9320918801F9
:100130003091890140918A0150918B0160918C012D
:1001400070918D0180918E0190918F01A2E00E94AB
:10015000010D209388013093890140938A015093C7
:100160008B0160938C0170938D0180938E0190932D
:100170008F01AF919F918F917F916F915F914F917F
:100180003F912F910F900FBE0F901F9018956130E7
:10019000710511F4299A089529980895613071051F
:1001A00011F4289A089528980895EF92FF920F93DA
:1001B0001F93CF93DF938C01E62EEA01F22E60E0CD
:1001C00070E00E94C7008E2D8F718EBD0DB407FEAA
:1001D000FDCFEEB49F2D9150FF2049F03FEF3EBD83
:1001E0000DB407FEFDCF2EB529939150C0F761E005
:1001F00070E0C8010E94C7008E2DDF91CF911F9142
:100200000F91FF90EF9008951F93CF93DF93EC0130
:10021000162F60E070E00E94C7001F711EBD0DB474
:1002200007FEFDCF8EB58FEF8EBD0DB407FEFDCF5F
:100230001EB561E070E0CE010E94C700812FDF9102
:10024000CF911F910895EF92FF920F931F93CF9339
:10025000DF938C01E62EEA01F22E60E070E00E944E
:10026000C7008E2D8F7180628EBD0DB407FEFDCF4D
:10027000EEB49F2D9150FF2041F029912EBD0DB479
:1002800007FEFDCF2EB59150C0F761E070E0C801C8
:100290000E94C7008E2DDF91CF911F910F91FF908B
:1002A000EF9008950F931F93CF93DF93EC01162FD8
:1002B000042F60E070E00E94C7001F7110621EBD35
:1002C0000DB407FEFDCF1EB50EBD0DB407FEFDCF6C
:1002D0008EB561E070E0CE010E94C700812FDF91F2
:1002E000CF911F910F910895DF92EF92FF920F939C
:1002F0001F93CF93DF93EC01D62EE72E0C81142FA2
:10030000041708F4102F8E81811102C0011B01C057
:1003100000E060E070E0CE010E94C70080EA8EBD80
:100320000DB407FEFDCFFEB4912F9150112351F073
:10033000ED2DFE2D21912EBD0DB407FEFDCF2EB566
:100340009150C0F7902F9150002339F01EBC0DB48E
:1003500007FEFDCF2EB59150C8F761E070E0CE01E9
:100360000E94C7008F2DDF91CF911F910F91FF90B9
:10037000EF90DF900895DF92EF92FF920F931F931B
:10038000CF93DF93EC01D62EE72E0C81142F0417A8
:1003900008F4102F8E81811102C0011B01C000E002
:1003A00060E070E0CE010E94C70081E68EBD0DB412
:1003B00007FEFDCFFEB4912F9150112359F0ED2D82
:1003C000FE2D3FEF3EBD0DB407FEFDCF2EB52193B0
:1003D0009150C0F7902F9150002341F02FEF2EBD88
:1003E0000DB407FEFDCF3EB59150C8F761E070E057
:1003F000CE010E94C7008F2DDF91CF911F910F91E9
:10040000FF90EF90DF9008951F93CF93DF93EC015F
:1004100060E070E00E94C70082EE8EBD0DB407FE62
:10042000FDCF1EB561E070E0CE010E94C700812FB4
:10043000DF91CF911F9108951F93CF93DF93EC012C
:1004400060E070E00E94C70081EE8EBD0DB407FE33
:10045000FDCF1EB561E070E0CE010E94C700812F84
:10046000DF91CF911F9108951F93CF93DF93EC01FC
:1004700060E070E00E94C7008FEF8EBD0DB407FEF4
:10048000FDCF1EB561E070E0CE010E94C700812F54
:10049000DF91CF911F9108950E9434020895FC01CD
:1004A0006083418381E08283138280E284831582AA
:1004B0001682108611861286138614861586168675
:1004C00017860895462F603808F04FE765E00E94D0
:1004D00052010895613208F060E2FC0164830895DE
:1004E000CF93DF93EC0160E00E940401482F43604A
:1004F00060E0CE010E94520140E767E0CE010E9419
:100500005201288539854A855B856C857D858E8578
:100510009F85A0E00E940D0D41F0AE01485F5F4F46
:1005200025E06AE0CE010E942301CE010E94040270
:10053000CE010E941C0261E070E0CE010E94CE005C
:100540008BE28A95F1F70000DF91CF910895CF9368
:10055000DF93EC0160E070E00E94CE00CE010E94CB
:100560001C02CE010E940402DF91CF910895CF9327
:10057000DF93EC0160E00E940401482F4D7F60E0B2
:10058000CE010E945201DF91CF910895FF920F9307
:100590001F93CF93DF93EC018B01F42E60E00E9458
:1005A00004018C7F482F426060E0CE010E9452011E
:1005B00082E38A95F1F74F2DB801CE010E947401B4
:1005C00061E070E0CE010E94CE0085E08A95F1F7EF
:1005D00060E070E0CE010E94CE00DF91CF911F91CC
:1005E0000F91FF9008951F93CF93DF93EC0160E08C
:1005F00070E00E94C70080E68EBD0DB407FEFDCFFF
:100600008EB58FEF8EBD0DB407FEFDCF1EB561E038
:1006100070E0CE010E94C700812FDF91CF911F9122
:100620000895EF92FF920F931F93CF93DF93EC0106
:100630008B010E943402F82E86FBEE24E0F886FF40
:1006400017C00115110541F0282F30E03595279589
:1006500027703327F801208340E467E0CE010E9431
:100660005201F5FE05C040E267E0CE010E94520152
:100670008E2DDF91CF911F910F91FF90EF900895F4
:1006800060E070E00E9411030895CF93DF93EC01C6
:100690000E94BB0167E1CE010E9404018170DF91DD
:1006A000CF910895EF92FF920F931F93CF93DF9313
:1006B0007B018A01E90140E767E00E94520185FB66
:1006C000992790F9F701908384FB992790F9F80115
:1006D000908386FB882780F98883DF91CF911F91D3
:1006E0000F91FF90EF900895CF92DF92EF92FF92DB
:1006F0000F931F93CF93DF9300D01F92CDB7DEB738
:100700008C010E94C6020E947A006B017C0121E0EC
:10071000AE014D5F5F4F68E0C8010E94D500807355
:1007200069F40E947A00AB01BC014C195D096E09A5
:100730007F09443F51406105710548F398012B5FE3
:100740003F4FAE014F5F5F4FBE016E5F7F4FC801ED
:100750000E945203FA80F8018581882329F0C8019C
:100760000E94F302F8018783C8010E94B702C80102
:100770000E941C028F2D0F900F900F90DF91CF9150
:100780001F910F91FF90EF90DF90CF900895EF921F
:10079000FF920F931F93CF93DF93CDB7DEB72897C8
:1007A0000FB6F894DEBF0FBECDBF7C0109831A835C
:1007B0002B833C834D835E836F83788725E0AE0176
:1007C0004F5F5F4F6AE00E94230125E0AE014F5F5B
:1007D0005F4F60E1C7010E942301F701448141326C
:1007E00008F040E261E1C7010E94520128960FB66D
:1007F000F894DEBF0FBECDBFDF91CF911F910F9157
:10080000FF90EF900895BF92CF92DF92EF92FF9208
:100810000F931F93CF93DF93CDB7DEB728970FB613
:10082000F894DEBF0FBECDBF6C01B62EE982FA820E
:100830000B831C832D833E834F83588761110AC02D
:10084000F601E086F186028713872487358746877D
:10085000578706C0F6E0F61728F181E0861768F0A2
:10086000AB2DB0E0A050BF4F25E0AE014F5F5F4F12
:100870006C91C6010E9423010CC0A62FB0E0A050CD
:10088000BF4F21E0AE014F5F5F4F6C91C6010E94E8
:100890002301EB2DF0E0EA5FFE4F44E06081C601EA
:1008A0000E94520128960FB6F894DEBF0FBECDBF4E
:1008B000DF91CF911F910F91FF90EF90DF90CF903C
:1008C000BF9008951F93CF93DF93EC01162F66E03E
:1008D0000E940401482F497F133011F446600DC077
:1008E000123011F4446009C0113011F4426005C0A7
:1008F000112319F0143009F4466066E0CE010E941D
:100900005201DF91CF911F9108950F931F93CF93C1
:10091000DF93EC01062F66E00E9404011A82182F73
:10092000177D023011F4106205C0013019F481E026
:100930008A831860412F66E0CE010E94520166E072
:10094000CE010E940401181719F01A8280E001C03C
:1009500081E0DF91CF911F910F9108951F93CF9365
:10096000DF93EC01162F60E00E940401482F437FC3
:10097000112329F0113011F4486001C04C6060E08F
:10098000CE010E945201DF91CF911F910895CF9324
:10099000DF93EC010E945F00209A219A0E94C90C0B
:1009A00081E00E94D70C80E00E94E10C84E00E946C
:1009B000E60C60E070E0CE010E94CE0061E070E0E5
:1009C000CE010E94C70081EE94E00197F1F700C0CC
:1009D00000004FE464E0CE010E94520163E0CE01CA
:1009E0000E94620462E0CE010E948504882311F017
:1009F00081E08B8360E0CE010E94850462E0CE013D
:100A00000E94AE0440E06CE1CE010E94520140E73A
:100A100067E0CE010E94520160E0CE010E94040115
:100A2000482F406760E0CE010E9452016BE6CE0184
:100A30000E946202CE010E940402CE010E941C02AA
:100A4000DF91CF9108954F7020E1629FB001112492
:100A5000462B64E00E94520108950E94040108950B
:100A60000E94D500089557985898599A5A9A0000AC
:100A700089B15A9800005A9A00005A9800008823B9
:100A8000ACF35998579A08955A9800005A9A000062
:100A90005A9881E28A95F1F700000895882311F0B1
:100AA000589A01C0589859988AB1806F8AB98BB109
:100AB0008F708BB98BB1962F9071892B8BB98BB1BD
:100AC000962F9072892B8BB98BB1962F9074892BAE
:100AD0008BB98BB16078682B6BB90E94440508957F
:100AE000CF93C82F682F80E00E944E056C2F62952F
:100AF000607F80E00E944E05CF9108952FE986E83F
:100B000091E0215080409040E1F700C000008FEF5D
:100B10008AB98BB958985A98599860E380E00E9436
:100B20004E0584E694E00197F1F700C0000060E311
:100B300080E00E944E0592E39A95F1F760E380E031
:100B40000E944E050E94330568E280E00E944E0537
:100B50000E94330588E20E9470050E94330588E0F8
:100B60000E9470050E94330581E00E9470050E947A
:100B7000330586E00E9470050E9433058FE00E94D5
:100B800070050895CF93C82F682F81E00E944E050D
:100B90006C2F6295607F81E00E944E05CF91089591
:100BA0000E94330582E00E94700583EF91E0019777
:100BB000F1F700C0000008950E94330581E00E9413
:100BC000700508950F931F93CF93DF9300D000D04B
:100BD000CDB7DEB7182F062F0E9433051A8219826F
:100BE00020E430E03C832B83E02FF0E0EE0FFF1F8A
:100BF000EC0FFD1F8181810F80680E9470050F90AE
:100C00000F900F900F90DF91CF911F910F9108954A
:100C1000CF93DF93EC010E9433058881882331F064
:100C200021960E94C20589918111FBCFDF91CF915E
:100C3000089588B182FB882780F9089560E080E0FC
:100C40000E94E2050E941906882329F08CE091E0B9
:100C50000E940806089580E191E00E940806089528
:100C60003A9A3B9A3C9A4298439844980E941E06AE
:100C70000895449A83ED90E30197F1F700C00000D6
:100C8000439883ED90E30197F1F700C0000044988A
:100C900083ED90E30197F1F700C0000042980E94B5
:100CA0001E060895429A83ED90E30197F1F700C084
:100CB0000000449A83ED90E30197F1F700C0000033
:100CC000439A83ED90E30197F1F700C00000449848
:100CD0000E941E060895389823B147B181E090E044
:100CE000BC0102C0660F771F2A95E2F79B01209591
:100CF000309550E02423352327B9ECE7F0E020813C
:100D000020642083EAE7F0E02081246820831092A9
:100D1000B7011092B60126982E9A539A5B9A1092B8
:100D2000B3011092B2019093B5018093B40108957C
:100D3000ECE7F0E090818F70907F982B9083EAE74A
:100D4000F0E0808180648083808186FDFDCF2091EA
:100D5000780030917900822F932F08951E9909C051
:100D60008091B2019091B30101969093B301809369
:100D7000B20121E030E08091B2019091B301853F52
:100D8000914014F420E030E0822F932F0895809159
:100D9000B4019091B501892B99F40E94AE06019798
:100DA00079F481E090E09093B5018093B4011092C2
:100DB000B9011092B8015B9A1092B3011092B2017E
:100DC0000895EF92FF920F931F93CF93DF9300D07C
:100DD00000D0CDB7DEB705E010E0E12CF12C80E0CB
:100DE0000E949806E80EF91E01501109C1F79701FB
:100DF000ADECBCEC0E94F50C969587959695879581
:100E000044EF51E0849F9001859F300D949F300DF9
:100E10001124832F869586958093B6011092B70191
:100E20004AE050E0BE016F5F7F4F90E00E941F0DCF
:100E300061E08CE00E94E205CE0101960E94080666
:100E40008FED0E94C20583E40E94C2050F900F90AF
:100E50000F900F90DF91CF911F910F91FF90EF9026
:100E600008951092B9011092B801F8941092B00050
:100E70001092B1001092B2008EE48093B3001092F1
:100E8000800010928100109285001092840080ED05
:100E900093E0909389008093880078941092AF013A
:100EA0001092AE011092AD011092AC011092AB0104
:100EB0001092AA011092A9011092A8011092B101FA
:100EC0001092B00108951092B2001092B1001092E9
:100ED000B000E0E7F0E080818D7F808308950E947C
:100EE000190681111DC01092B20082E08093B000FB
:100EF00085E08093B1001092A9011092A801109290
:100F0000AB011092AA011092AD011092AC011092A7
:100F1000AF011092AE01E0E7F0E080818260808353
:100F200008951092850010928400E1E8F0E080813D
:100F30008D6080831092B9011092B801EFE6F0E065
:100F400080818260808308951F920F920FB60F9266
:100F500011242F933F938F939F938091B801909189
:100F6000B90101969093B9018093B8012091B40121
:100F70003091B5012130310589F40B977CF081E087
:100F800090E09093B1018093B0011092B90110925A
:100F9000B8015B981092B5011092B4018091B8012C
:100FA0009091B9014F9774F081E090E09093B10176
:100FB0008093B0011092B9011092B8011092B30160
:100FC0001092B2019F918F913F912F910F900FBE80
:100FD0000F901F901895CF93DF93CDB7DEB727976B
:100FE0000FB6F894DEBF0FBECDBF61E080E00E9477
:100FF000E2054AE050E0BE016B5F7F4F8091AA019D
:101000009091AB010E941F0D4AE050E0BE016F5F5E
:101010007F4F8091AC019091AD010E941F0DCE01D8
:1010200005960E9408068AE30E94C2058091AC01E1
:101030009091AD010A971CF480E30E94C205CE0195
:1010400001960E94080627960FB6F894DEBF0FBEE1
:10105000CDBFDF91CF9108951F920F920FB60F92DF
:1010600011242F933F934F935F936F937F938F93AD
:101070009F93AF93BF93EF93FF938091A8019091BB
:10108000A90101969093A9018093A8018536910545
:10109000BCF18091AE019091AF0101969093AF01A8
:1010A0008093AE011092A9011092A801CC9744F14F
:1010B0008091AC019091AD0101969093AD01809328
:1010C000AC011092AF011092AE01CC976CF0809100
:1010D000AA019091AB0101969093AB018093AA0174
:1010E0001092AD011092AC010E94EB078091AA0111
:1010F0009091AB01029724F00E9439060E94630789
:10110000FF91EF91BF91AF919F918F917F916F91DF
:101110005F914F913F912F910F900FBE0F901F90B5
:10112000189581E090E0909397018093960108953F
:101130000F931F93CF93DF938C01181619064CF46D
:10114000C0E0D0E08FEF0E94C2052196C017D10702
:10115000C9F7DF91CF911F910F910895359B0EC074
:1011600010929501109294018091920190919301B7
:10117000019690939301809392010DC01092930178
:101180001092920180919401909195010196909313
:1011900095018093940121E030E080919401909139
:1011A00095018C32914014F420E030E0822F932F8F
:1011B0000895CF92DF92EF92FF92CF93DF93CDB756
:1011C000DEB72A970FB6F894DEBF0FBECDBF6A0117
:1011D0007B01009729F460E084E00E94E20506C0EC
:1011E000019721F461E084E00E94E20520E130E013
:1011F000AE014F5F5F4FC701B6010E94400DCE01A7
:1012000001960E9408062A960FB6F894DEBF0FBE1C
:10121000CDBFDF91CF91FF90EF90DF90CF900895F9
:10122000CF92DF92EF92FF920F931F93CF93DF93B2
:1012300000D000D0CDB7DEB769837A838B839C83DF
:1012400089EF90E00197F1F700C0000088E991E094
:101250000E94A70206E010E00150110991F4C12C90
:10126000D12C760188E991E00E94700249815A816F
:101270006B817C8181E090E00E94D9088C2D9D2DAE
:1012800018C044E0BE016F5F7F4F88E991E00E9483
:101290007403C82ED12CE12CF12C87E893E101973F
:1012A000F1F700C00000C114D104E104F104D1F64B
:1012B000D3CF0F900F900F900F90DF91CF911F9190
:1012C0000F91FF90EF90DF90CF9008958F929F92B3
:1012D000AF92BF92CF92DF92EF92FF920F931F9344
:1012E000CF93DF9300D000D0CDB7DEB70E94AE0819
:1012F000892BE1F08091900190919101892BD1F49B
:101300000E941906882329F00E9439060E9463076B
:1013100006C00E946F070E9452060E94EB0781E000
:1013200090E0909391018093900104C010929101FC
:10133000109290010E94C7068091B0019091B10176
:10134000892B31F00E94E1061092B1011092B00198
:1013500088E991E00E944003882309F419C144E020
:10136000BE016F5F7F4F88E991E00E944503E7E887
:10137000F3E13197F1F700C00000882381F3C980C1
:10138000DA80EB80FC8046015701072E7CE1B694A1
:10139000A794979487947A95D1F7702D182DFFEF25
:1013A000CF16DF06EF06FF0631F0B701A60180E099
:1013B00090E00E94D908212F30E080919601909111
:1013C00097012817390709F0E1C0113009F0E0C092
:1013D0008F2D9927AA27BB278F709927AA27BB276C
:1013E0008C3009F0D5C08C2D8F700B2EB7E1F694A0
:1013F000E794D794C794BA95D1F7B02DC0FE22C018
:10140000882321F0813009F0C3C00DC069817A8141
:101410008B819C810E9410090E9463070E949108A1
:101420000E943906B5C069817A818B819C810E94B6
:1014300010090E9491080E946F070E9452060E94A4
:10144000EB07A6C0863051F118F4882341F0A0C004
:10145000883009F47BC08F3009F09AC065C00E94C3
:1014600019064091960150919701662757FD6095A6
:10147000762F032E3CE1440F551F661F771F3A95C8
:10148000D1F7302D7C6081708A019B01082BC90146
:10149000B8010E9410090E9491087AC06091AC01C5
:1014A0007091AD016F737727CB01AA2797FDA095A7
:1014B000BA2FBC60072E7CE1880C991CAA1CBB1CAF
:1014C0007A95D1F7702D882A992AAA2ABB2A809169
:1014D000AA019091AB0187709927AA2797FDA09543
:1014E000BA2F880F991FAA1FBB1F880F991FAA1F09
:1014F000BB1F880F991FAA1FBB1F880F991FAA1F08
:10150000BB1F880F991FAA1FBB1F880F991FAA1FF7
:10151000BB1FBC01CD01682979298A299B290E941A
:1015200010090E94910834C0072E7CE1880C991C98
:10153000AA1CBB1C7A95D1F7702DC501B40161605E
:101540009C600E9410090E94910822C06091B6011F
:101550007091B7016F777727CB01AA2797FDA095E8
:10156000BA2FBC60072E7CE1880C991CAA1CBB1CFE
:101570007A95D1F7702DBC01CD01682979298A2986
:101580009B290E9410090E94910802C00E949108A4
:101590000F900F900F900F90DF91CF911F910F91AF
:1015A000FF90EF90DF90CF90BF90AF909F908F9083
:1015B00008951F93CF93DF9300D01F92CDB7DEB76E
:1015C000162F0E940806612F88E991E00E942D05E0
:1015D00040E150E0BE016F5F7F4F90E00E94650DDB
:1015E000CE0101960E9408060F900F900F90DF9198
:1015F000CF911F9108950F931F93CF93DF9388E9A5
:1016000091E00E944C02082F84E191E00E940806BC
:10161000C7E0D0E010E098010C2E02C03595279568
:101620000A94E2F720FF04C081E30E94C20503C0D0
:1016300080E30E94C205219770F7DF91CF911F913F
:101640000F910895EF92FF920F931F93CF93DF9323
:10165000CDB7DEB728970FB6F894DEBF0FBECDBF6B
:1016600025E0EE24E394F12CEC0EFD1EA701682F7B
:1016700088E991E00E9430058CE191E00E94080623
:101680008E010A5F1F4F40E150E0BE016A5F7F4F4D
:10169000F80182918F0190E00E94650DCE010696BF
:1016A0000E9408060E151F0571F728960FB6F894CC
:1016B000DEBF0FBECDBFDF91CF911F910F91FF9085
:1016C000EF900895CF93DF9300D000D0CDB7DEB771
:1016D0000E94DC0587E893E10197F1F700C0000064
:1016E00085E090E00E9498088FE191E00E94080652
:1016F00084E090E00E94980861E080E00E94E205AA
:1017000085E090E00E94980887E291E00E94080638
:1017100087E090E00E9498089FED23E984E09150D3
:1017200020408040E1F700C000000E94DC058CE210
:1017300091E00E94080680E20E94C20583E391E0E6
:101740000E94080689E391E00E94080661E080E0BB
:101750000E94E2058EE391E00E94080689E491E090
:101760000E9408069FED23E984E0915020408040CC
:10177000E1F700C000000E94DC054AE050E0BE0135
:101780006F5F7F4F8CE090E00E941F0D8EE491E030
:101790000E940806CE0101960E9408069FED23E9EB
:1017A00084E0915020408040E1F700C000000E949A
:1017B000DC0586E591E00E9408068AE00E94220B83
:1017C00061E080E00E94E2058BE591E00E9408065E
:1017D0008BE00E94220B9FED23E984E09150204092
:1017E0008040E1F700C000000E94DC0580E691E047
:1017F0000E94080680E10E94220B61E080E00E94C6
:10180000E20562E085E691E00E94D90A9FED23E9B6
:1018100084E0915020408040E1F700C000000E9429
:10182000DC0561E188E591E00E94D90A62E18CE67D
:1018300091E00E94D90A63E180E791E00E94D90A11
:1018400061E080E00E94E20564E184E791E00E94AB
:10185000D90A65E187E791E00E94D90A66E18BE742
:1018600091E00E94D90A9FED23E984E09150204045
:101870008040E1F700C000000E94DC0560E08FE7D7
:1018800091E00E94D90A61E080E00E94E2050E9496
:10189000FB0A9FED23E984E0915020408040E1F76E
:1018A00000C000000E94DC050F900F900F900F9079
:1018B000DF91CF910895EF92FF920F931F930E94B3
:1018C0007E050E94D0050E94300688E991E00E94C2
:1018D000C7044FE06FE088E991E00E94230564E0CF
:1018E00088E991E00E946A026BE688E991E00E9433
:1018F000620263E088E991E00E94620402ED10EF69
:1019000020EF30EF40EF50E060E070E088E991E0D8
:101910000E94C7030F2EF1EEEF2EF02D0F2EF0EFE9
:10192000FF2EF02D00EF20EF30E040E050E061E0CE
:1019300088E991E00E94030488E991E00E94700226
:101940000E9491080E9431070E946B063D98459ABB
:1019500010929501109294011092930110929201AD
:1019600010929101109290010E94620B0E949107C7
:101970001F910F91FF90EF9008950E945B0C0E94C1
:101980006609FDCF40E060E088E991E00E944F02E7
:10199000089584B18C6284B9249885B1846185B935
:1019A00085B1877D85B98CB580658CBD0895811121
:1019B00004C08CB580628CBD08958CB58F7D8CBDC4
:1019C00008959CB5937F892B8CBD08959CB5282FD5
:1019D00023709C7F922B9CBD2DB582FB992790F99B
:1019E000822F8E7F892B8DBD0895A29FB001B39F5A
:1019F000C001A39F01D0B29F700D811D1124911DC4
:101A000008950024A7FD00942A0F301D401D501D8D
:101A1000601D701D801D901D08950024A7FD009479
:101A20002A173005400550056005700580059005B2
:101A30000895EE0FFF1F0590F491E02D0994FB012E
:101A40009F01E8944230C4F04532B4F44A3029F49E
:101A500097FB1EF4909581959F4F642F77270E94E6
:101A60008B0D805D8A330CF0895D8193CB010097EB
:101A7000A1F716F45DE251931082C9010C947B0D1D
:101A8000FA01CF93FF93EF932230CCF02532BCF4D0
:101A9000C22F2C2F332744275527FF93EF930E9403
:101AA0009F0DEF91FF91605D6A330CF0695D61936A
:101AB000B901CA01605070408040904051F71082D7
:101AC0008F919F91CF910C947B0DFB019F01423030
:101AD00074F0453264F4642F77270E948B0D805D8B
:101AE0008A330CF0895D8193CB010097A1F71082B6
:101AF000C9010C947B0DDC01FC01672F71917723E8
:101B0000E1F7329704C07C916D9370836291AE17B8
:101B1000BF07C8F30895AA1BBB1B51E107C0AA1F4A
:101B2000BB1FA617B70710F0A61BB70B881F991F7E
:101B30005A95A9F780959095BC01CD010895A1E231
:101B40001A2EAA1BBB1BFD010DC0AA1FBB1FEE1F37
:101B5000FF1FA217B307E407F50720F0A21BB30B82
:101B6000E40BF50B661F771F881F991F1A9469F7FE
:101B700060957095809590959B01AC01BD01CF015A
:061B80000895F894FFCF68
:101B86000A0B0C0D0E0F1112131415164F6E2000B2
:101B96004F6666005374617475733A003078005767
:101BA600656C636F6D65004761626900426F696CC1
:101BB600657200536C61766500204D6F640046695E
:101BC600726D776172653A2000312E3931004D7998
:101BD6002049443A20005258303A005258313A00CF
:101BE6005458203A00454E5F52583A0020313A0088
:101BF60020323A00333A0020343A0020353A004386
:081C06006F6E6669673A000089
:00000001FF
