S01800006E72665F66726F6D5F6172645F6370702E737265637B
S11300000C9435000C945D000C945D000C945D0020
S11300100C945D000C945D000C945D000C94B1068E
S11300200C945D000C945D000C945D000C945A06D5
S11300300C945D000C945D000C945D000C945D00C8
S11300400C9488000C945D000C945D000C945D008D
S11300500C945D000C945D000C945D000C945D00A8
S11300600C945D000C945D001A0A11241FBECFEF9E
S1130070D8E0DEBFCDBF11E0A0E0B1E0EAE0F6E1F8
S113008002C005900D92A837B107D9F721E0A8E77F
S1130090B1E001C01D92A43AB207E1F710E0CAE64C
S11300A0D0E004C02297FE010E94730AC836D1072B
S11300B0C9F70E94150A0C94030B0C9400001092CB
S11300C078011092790110927A0110927B011092BA
S11300D07C0110927D0110927E0110927F0116BC6A
S11300E085B5826085BDEEE6F0E080818160808325
S11300F078940895F8945091780140917901309161
S11301007A0190917B017894652F742F832F089541
S11301101F920F920FB60F9211242F933F934F9378
S11301205F936F937F938F939F93AF932091780105
S11301303091790140917A0150917B0160917C0169
S113014070917D0180917E0190917F01A2E00E94D7
S1130150590A209378013093790140937A0150939E
S11301607B0160937C0170937D0180937E01909369
S11301707F01AF919F918F917F916F915F914F918B
S11301803F912F910F900FBE0F901F9018956130E3
S1130190710511F4299A089529980895613071051B
S11301A011F4289A089528980895EF92FF920F93D6
S11301B01F93CF93DF938C01E62EEA01F22E60E0C9
S11301C070E00E94C7008E2D8F718EBD0DB407FEA6
S11301D0FDCFEEB49F2D9150FF2049F03FEF3EBD7F
S11301E00DB407FEFDCF2EB529939150C0F761E001
S11301F070E0C8010E94C7008E2DDF91CF911F913E
S11302000F91FF90EF9008951F93CF93DF93EC012C
S1130210162F60E070E00E94C7001F711EBD0DB470
S113022007FEFDCF8EB58FEF8EBD0DB407FEFDCF5B
S11302301EB561E070E0CE010E94C700812FDF91FE
S1130240CF911F910895EF92FF920F931F93CF9335
S1130250DF938C01E62EEA01F22E60E070E00E944A
S1130260C7008E2D8F7180628EBD0DB407FEFDCF49
S1130270EEB49F2D9150FF2041F029912EBD0DB475
S113028007FEFDCF2EB59150C0F761E070E0C801C4
S11302900E94C7008E2DDF91CF911F910F91FF9087
S11302A0EF9008950F931F93CF93DF93EC01162FD4
S11302B0042F60E070E00E94C7001F7110621EBD31
S11302C00DB407FEFDCF1EB50EBD0DB407FEFDCF68
S11302D08EB561E070E0CE010E94C700812FDF91EE
S11302E0CF911F910F910895DF92EF92FF920F9398
S11302F01F93CF93DF93EC01D62EE72E0C81142F9E
S1130300041708F4102F8E81811102C0011B01C053
S113031000E060E070E0CE010E94C70080EA8EBD7C
S11303200DB407FEFDCFFEB4912F9150112351F06F
S1130330ED2DFE2D21912EBD0DB407FEFDCF2EB562
S11303409150C0F7902F9150002339F01EBC0DB48A
S113035007FEFDCF2EB59150C8F761E070E0CE01E5
S11303600E94C7008F2DDF91CF911F910F91FF90B5
S1130370EF90DF900895DF92EF92FF920F931F9317
S1130380CF93DF93EC01D62EE72E0C81142F0417A4
S113039008F4102F8E81811102C0011B01C000E0FE
S11303A060E070E0CE010E94C70081E68EBD0DB40E
S11303B007FEFDCFFEB4912F9150112359F0ED2D7E
S11303C0FE2D3FEF3EBD0DB407FEFDCF2EB52193AC
S11303D09150C0F7902F9150002341F02FEF2EBD84
S11303E00DB407FEFDCF3EB59150C8F761E070E053
S11303F0CE010E94C7008F2DDF91CF911F910F91E5
S1130400FF90EF90DF9008951F93CF93DF93EC015B
S113041060E070E00E94C70082EE8EBD0DB407FE5E
S1130420FDCF1EB561E070E0CE010E94C700812FB0
S1130430DF91CF911F9108951F93CF93DF93EC0128
S113044060E070E00E94C70081EE8EBD0DB407FE2F
S1130450FDCF1EB561E070E0CE010E94C700812F80
S1130460DF91CF911F9108951F93CF93DF93EC01F8
S113047060E070E00E94C7008FEF8EBD0DB407FEF0
S1130480FDCF1EB561E070E0CE010E94C700812F50
S1130490DF91CF911F910895FC016083418381E036
S11304A08283138280E284831582168210861186E9
S11304B01286138614861586168617860895462F87
S11304C0603808F04FE765E00E94520108956132F8
S11304D008F060E2FC0164830895CF93DF93EC019C
S11304E060E00E940401482F436060E0CE010E9456
S11304F0520140E767E0CE010E9452012885398508
S11305004A855B856C857D858E859F85A0E00E94EC
S1130510650A41F0AE01485F5F4F25E06AE0CE0115
S11305200E942301CE010E940402CE010E941C02FB
S113053061E070E0CE010E94CE008BE28A95F1F773
S11305400000DF91CF910895CF93DF93EC0160E039
S113055070E00E94CE00CE010E941C02CE010E94D7
S11305600402DF91CF910895CF93DF93EC0160E013
S11305700E940401482F4D7F60E0CE010E94520189
S1130580DF91CF910895FF920F931F93CF93DF9341
S1130590EC018B01F42E60E00E9404018C7F482F53
S11305A0426060E0CE010E94520182E38A95F1F735
S11305B04F2DB801CE010E94740161E070E0CE01BC
S11305C00E94CE0085E08A95F1F760E070E0CE01EC
S11305D00E94CE00DF91CF911F910F91FF9008955B
S11305E01F93CF93DF93EC0160E070E00E94C7009B
S11305F080E68EBD0DB407FEFDCF8EB58FEF8EBDA8
S11306000DB407FEFDCF1EB561E070E0CE010E947F
S1130610C700812FDF91CF911F910895EF92FF9230
S11306200F931F93CF93DF93EC018B010E9434024D
S1130630F82E86FBEE24E0F886FF17C0011511059D
S113064041F0282F30E03595279527703327F8019E
S1130650208340E467E0CE010E945201F5FE05C00C
S113066040E267E0CE010E9452018E2DDF91CF91CE
S11306701F910F91FF90EF90089560E070E00E9449
S11306800E030895CF93DF93EC010E94BB0167E151
S1130690CE010E9404018170DF91CF910895EF9201
S11306A0FF920F931F93CF93DF937B018A01E9019C
S11306B040E767E00E94520185FB992790F9F70112
S11306C0908384FB992790F9F801908386FB88270F
S11306D080F98883DF91CF911F910F91FF90EF9064
S11306E00895CF92DF92EF92FF920F931F93CF93CF
S11306F0DF9300D01F92CDB7DEB78C010E94C302F6
S11307000E947A006B017C0121E0AE014D5F5F4FD6
S113071068E0C8010E94D500807369F40E947A00E1
S1130720AB01BC014C195D096E097F09443F51407E
S11307306105710548F398012B5F3F4FAE014F5F90
S11307405F4FBE016E5F7F4FC8010E944F03FA8066
S1130750F8018581882329F0C8010E94F002F8017C
S11307608783C8010E94B402C8010E941C028F2D15
S11307700F900F900F90DF91CF911F910F91FF90E9
S1130780EF90DF90CF900895EF92FF920F931F9315
S1130790CF93DF93CDB7DEB728970FB6F894DEBFBB
S11307A00FBECDBF7C0109831A832B833C834D8309
S11307B05E836F83788725E0AE014F5F5F4F6AE009
S11307C00E94230125E0AE014F5F5F4F60E1C70146
S11307D00E942301F7014481413208F040E261E1C3
S11307E0C7010E94520128960FB6F894DEBF0FBECF
S11307F0CDBFDF91CF911F910F91FF90EF9008959E
S1130800BF92CF92DF92EF92FF920F931F93CF93F9
S1130810DF93CDB7DEB728970FB6F894DEBF0FBECF
S1130820CDBF6C01B62EE982FA820B831C832D8323
S11308303E834F83588761110AC0F601E086F18632
S113084002871387248735874687578706C0F6E0D3
S1130850F61728F181E0861768F0AB2DB0E0A050C0
S1130860BF4F25E0AE014F5F5F4F6C91C6010E9400
S113087023010CC0A62FB0E0A050BF4F21E0AE0171
S11308804F5F5F4F6C91C6010E942301EB2DF0E096
S1130890EA5FFE4F44E06081C6010E94520128963F
S11308A00FB6F894DEBF0FBECDBFDF91CF911F917D
S11308B00F91FF90EF90DF90CF90BF9008951F931A
S11308C0CF93DF93EC01162F66E00E940401482FBA
S11308D0497F133011F446600DC0123011F44460A6
S11308E009C0113011F4426005C0112319F014300D
S11308F009F4466066E0CE010E945201DF91CF9177
S11309001F9108950F931F93CF93DF93EC01062F4C
S113091066E00E9404011A82182F177D023011F438
S1130920106205C0013019F481E08A831860412FF8
S113093066E0CE010E94520166E0CE010E940401ED
S1130940181719F01A8280E001C081E0DF91CF917D
S11309501F910F9108951F93CF93DF93EC01162FEE
S113096060E00E940401482F437F112329F01130D5
S113097011F4486001C04C6060E0CE010E94520155
S1130980DF91CF911F910895CF93DF93EC010E94E3
S11309905F00209A219A0E94210A81E00E942F0A76
S11309A080E00E94390A84E00E943E0A60E070E020
S11309B0CE010E94CE0061E070E0CE010E94C7002B
S11309C081EE94E00197F1F700C000004FE464E089
S11309D0CE010E94520163E0CE010E945F0462E0F6
S11309E0CE010E948204882311F081E08B8360E0B1
S11309F0CE010E94820462E0CE010E94AB0440E07A
S1130A006CE1CE010E94520140E767E0CE010E94F2
S1130A10520160E0CE010E940401482F406760E06B
S1130A20CE010E9452016BE6CE010E945F02CE010C
S1130A300E940402CE010E941C02DF91CF9108950E
S1130A404F7020E1629FB0011124462B64E00E94A4
S1130A505201089557985898599A5A9A000089B1A2
S1130A605A9800005A9A00005A9800008823ACF360
S1130A705998579A08955A9800005A9A00005A981B
S1130A8081E28A95F1F700000895882311F0589ABD
S1130A9001C0589859988AB1806F8AB98BB18F7008
S1130AA08BB98BB1962F9071892B8BB98BB1962F03
S1130AB09072892B8BB98BB1962F9074892B8BB93B
S1130AC08BB16078682B6BB90E943B050895CF9376
S1130AD0C82F682F80E00E9445056C2F6295607FC7
S1130AE080E00E944505CF9108952FE986E891E0C2
S1130AF0215080409040E1F700C000008FEF8AB998
S1130B008BB958985A98599860E380E00E9445053B
S1130B1084E694E00197F1F700C0000060E380E010
S1130B200E94450592E39A95F1F760E380E00E9404
S1130B3045050E942A0568E280E00E9445050E945E
S1130B402A0588E20E9467050E942A0588E00E941F
S1130B5067050E942A0581E00E9467050E942A0514
S1130B6086E00E9467050E942A058FE00E946705BF
S1130B700895CF93C82F682F81E00E9445056C2FFC
S1130B806295607F81E00E944505CF9108950E949F
S1130B902A0582E00E94670583EF91E00197F1F74F
S1130BA000C0000008950F931F93CF93DF9300D0EC
S1130BB000D0CDB7DEB7182F062F0E942A051A825F
S1130BC0198220E430E03C832B83E02FF0E0EE0F29
S1130BD0FF1FEC0FFD1F8181810F80680E94670554
S1130BE00F900F900F900F90DF91CF911F910F9165
S1130BF00895CF93DF93EC010E942A05888188230E
S1130C0031F021960E94B90589918111FBCFDF91C2
S1130C10CF9108951092A3011092A201F89410921A
S1130C20B0001092B1001092B2008EE48093B30031
S1130C30109280001092810010928500109284001E
S1130C4080ED93E0909389008093880078941092CB
S1130C509F0110929E0110929D0110929C0110928E
S1130C609B0110929A01109299011092980110928E
S1130C70A1011092A00108951092B2001092B10047
S1130C801092B000E0E7F0E080818D7F80830895CA
S1130C901092B20082E08093B00085E08093B100AE
S1130CA01092990110929801E0E7F0E0808182604F
S1130CB0808308951F920F920FB60F9211248F9381
S1130CC09F938091A2019091A30101969093A30117
S1130CD08093A2014F9734F081E090E09093A101BA
S1130CE08093A0019F918F910F900FBE0F901F9042
S1130CF01895CF93DF93CDB7DEB727970FB6F89447
S1130D00DEBF0FBECDBF61E080E00E94D3054AE0A4
S1130D1050E0BE016B5F7F4F80919A0190919B01DF
S1130D200E94770A4AE050E0BE016F5F7F4F8091D6
S1130D309C0190919D010E94770ACE0105960E9424
S1130D40F9058AE30E94B905CE0101960E94F905CE
S1130D5027960FB6F894DEBF0FBECDBFDF91CF91BB
S1130D6008951F920F920FB60F9211242F933F9361
S1130D704F935F936F937F938F939F93AF93BF939F
S1130D80EF93FF938091980190919901019690932C
S1130D90990180939801853691056CF180919E01AB
S1130DA090919F01019690939F0180939E011092D0
S1130DB0990110929801CD97F4F080919C01909143
S1130DC09D01019690939D0180939C0110929F0137
S1130DD010929E01CD976CF080919A0190919B01A5
S1130DE0019690939B0180939A0110929D01109219
S1130DF09C010E947906FF91EF91BF91AF919F9161
S1130E008F917F916F915F914F913F912F910F90AF
S1130E100FBE0F901F90189588B182FB882780F928
S1130E20089560E080E00E94D3050E940C078823A7
S1130E3029F08CE091E00E94F905089580E191E0A9
S1130E400E94F90508953A9A3B9A3C9A429843982D
S1130E5044980E9411070895449A83ED90E3019702
S1130E60F1F700C00000439883ED90E30197F1F798
S1130E7000C00000449883ED90E30197F1F700C0AF
S1130E80000042980E9411070895429A83ED90E36E
S1130E900197F1F700C00000449A83ED90E30197B5
S1130EA0F1F700C00000439A83ED90E30197F1F756
S1130EB000C0000044980E941107089520982198CA
S1130EC0ECE7F0E0808180648083EAE7F0E08081F1
S1130ED0846880830895ECE7F0E090818F70907FC0
S1130EE0982B9083EAE7F0E080818064808380819E
S1130EF086FDFDCF2091780030917900822F932FC9
S1130F000895EF92FF920F931F93CF93DF9300D036
S1130F1000D0CDB7DEB705E010E0E12CF12C80E085
S1130F200E946B07E80EF91E01501109C1F79701E1
S1130F30ADECBCEC0E944D0A9695879596958795E5
S1130F4044EF51E0849F9001859F300D949F300DB4
S1130F5011244AE050E0BE016F5F7F4F832F8695D6
S1130F60869590E00E94770A61E08CE00E94D305A8
S1130F70CE0101960E94F9058FED0E94B90583E424
S1130F800E94B9050F900F900F900F90DF91CF91B1
S1130F901F910F91FF90EF90089581E090E090935E
S1130FA08701809386010895EF92FF920F931F9318
S1130FB00E9475050E94C7050E94230788E891E0F6
S1130FC00E94C4044FE06FE088E891E00E9420058D
S1130FD064E088E891E00E9467026BE688E891E0AB
S1130FE00E945F0263E088E891E00E945F0402EDE2
S1130FF010EF20EF30EF40EF50E060E070E088E861
S113100091E00E94C4030F2EF1EEEF2EF02D0F2E6F
S1131010F0EFFF2EF02D00EF20EF30E040E050E045
S113102061E088E891E00E94000488E891E00E9471
S11310306D020E94CD070E940A060E945E07259851
S11310402D9A1092850110928401109283011092BE
S1131050820110928101109280011F910F91FF90E3
S1131060EF9008951092830110928201809184017F
S1131070909185010196909385018093840121E0EC
S113108030E08436910514F420E030E0822F932F71
S11310900895CF92DF92EF92FF92CF93DF93CDB773
S11310A0DEB72A970FB6F894DEBF0FBECDBF6A0134
S11310B07B01009729F460E084E00E94D30506C018
S11310C0019721F461E084E00E94D30520E130E03F
S11310D0AE014F5F5F4FC701B6010E94980ACE016F
S11310E001960E94F9052A960FB6F894DEBF0FBE4A
S11310F0CDBFDF91CF91FF90EF90DF90CF90089517
S1131100CF92DF92EF92FF920F931F93CF93DF93CF
S113111000D000D0CDB7DEB769837A838B839C83FC
S113112089EF90E00197F1F700C0000088E891E0B2
S11311300E94A40206E010E00150110991F4C12CB0
S1131140D12C760188E891E00E946D0249815A8190
S11311506B817C8181E090E00E9449088C2D9D2D5B
S113116018C044E0BE016F5F7F4F88E891E00E94A1
S11311707103C82ED12CE12CF12C87E893E101975F
S1131180F1F700C00000C114D104E104F104D1F668
S1131190D3CF0F900F900F900F90DF91CF911F91AD
S11311A00F91FF90EF90DF90CF9008958F929F92D0
S11311B0AF92BF92CF92DF92EF92FF920F931F9361
S11311C0CF93DF9300D000D0CDB7DEB70E943208B2
S11311D0892BB1F08091800190918101892BA1F438
S11311E00E940C07882319F00E942C0702C00E9459
S11311F0450781E090E0909381018093800104C0D1
S113120010928101109280018091A0019091A1011E
S1131210892B31F00E9481071092A1011092A00144
S113122088E891E00E943D03882309F4EDC044E07E
S1131230BE016F5F7F4F88E891E00E944203E7E8B8
S1131240F3E13197F1F700C00000882381F3C980EE
S1131250DA80EB80FC8046015701072E7CE1B694CE
S1131260A794979487947A95D1F7702D182DB70188
S1131270A60180E090E00E944908282D30E080918A
S11312808601909187012817390709F0BBC01130F6
S113129009F0BAC08F2D9927AA27BB278F709927E9
S11312A0AA27BB278C3009F0AFC08C2D8F700B2E72
S11312B0B7E1F694E794D794C794BA95D1F7B02DD3
S11312C0C0FE22C0882321F0813009F09DC00DC0EA
S11312D069817A818B819C810E9480080E943C06EE
S11312E00E94CD070E942C078FC00E944806698186
S11312F07A818B819C810E9480080E94CD070E9484
S113130045070E94790680C0863021F18F3009F4A8
S113131067C0811179C00E940C07409186015091E9
S11313208701662757FD6095762F032E3CE1440F15
S1131330551F661F771F3A95D1F7302D7C60817059
S11313408A019B01082BC901B8010E9480080E94F0
S1131350CD075AC060919C0170919D016F737727EE
S1131360CB01AA2797FDA095BA2FBC60072E7CE17C
S1131370880C991CAA1CBB1C7A95D1F7702D882A5D
S1131380992AAA2ABB2A80919A0190919B0187707D
S11313909927AA2797FDA095BA2F880F991FAA1FEE
S11313A0BB1F880F991FAA1FBB1F880F991FAA1F55
S11313B0BB1F880F991FAA1FBB1F880F991FAA1F45
S11313C0BB1F880F991FAA1FBB1FBC01CD01682931
S11313D079298A299B290E9480080E94CD0714C07C
S11313E0072E7CE1880C991CAA1CBB1C7A95D1F7AA
S11313F0702DC501B40161609C600E9480080E9448
S1131400CD0702C00E94CD070F900F900F900F9050
S1131410DF91CF911F910F91FF90EF90DF90CF90CC
S1131420BF90AF909F908F9008950E94D4070E9420
S1131430D608FDCF40E060E088E891E00E944C02CD
S1131440089584B18C6284B9249885B1846185B986
S113145085B1877D85B98CB580658CBD0895811172
S113146004C08CB580628CBD08958CB58F7D8CBD15
S113147008959CB5937F892B8CBD08959CB5282F26
S113148023709C7F922B9CBD2DB582FB992790F9EC
S1131490822F8E7F892B8DBD0895A29FB001B39FAB
S11314A0C001A39F01D0B29F700D811D1124911D15
S11314B008950024A7FD00942A0F301D401D501DDF
S11314C0601D701D801D901D08950024A7FD0094CB
S11314D02A17300540055005600570058005900504
S11314E00895EE0FFF1F0590F491E02D0994FB0180
S11314F09F01E8944230C4F04532B4F44A3029F4F0
S113150097FB1EF4909581959F4F642F77270E9437
S1131510CD0A805D8A330CF0895D8193CB010097FD
S1131520A1F716F45DE251931082C9010C94BD0A2F
S1131530FA01CF93FF93EF932230CCF02532BCF421
S1131540C22F2C2F332744275527FF93EF930E9454
S1131550E10AEF91FF91605D6A330CF0695D61937C
S1131560B901CA01605070408040904051F7108228
S11315708F919F91CF910C94BD0ADC01FC01672FE0
S113158071917723E1F7329704C07C916D93708356
S11315906291AE17BF07C8F30895AA1BBB1B51E1A4
S11315A007C0AA1FBB1FA617B70710F0A61BB70BCF
S11315B0881F991F5A95A9F780959095BC01CD0174
S11315C00895A1E21A2EAA1BBB1BFD010DC0AA1F80
S11315D0BB1FEE1FFF1FA217B307E407F50720F098
S11315E0A21BB30BE40BF50B661F771F881F991F13
S11315F01A9469F760957095809590959B01AC015C
S10D1600BD01CF010895F894FFCF57
S113160A0A0B0C0D0E0F1112131415164F6E20002F
S113161A4F6666005374617475733A0030780057E4
S113162A656C636F6D65004761626900426F696C3E
S113163A657200536C61766500204D6F64004D79C4
S113164A2049443A20005258303A005258313A005C
S113165A5458203A00454E5F52583A0020313A0015
S113166A20323A00333A0020343A0020353A004313
S10B167A6F6E6669673A000017
S9030000FC
