:100000000C9435000C945D000C945D000C945D0024
:100010000C945D000C945D000C945D000C944309FD
:100020000C945D000C945D000C945D000C9496089B
:100030000C945D000C945D000C945D000C945D00CC
:100040000C9488000C945D000C945D000C945D0091
:100050000C945D000C945D000C945D000C945D00AC
:100060000C945D000C945D008D0E11241FBECFEF2B
:10007000D8E0DEBFCDBF12E0A0E0B1E0ECE1FFE1EF
:1000800002C005900D92A038B107D9F722E0A0E890
:10009000B2E001C01D92A63BB207E1F710E0CAE64C
:1000A000D0E004C02297FE010E94E60EC836D107B8
:1000B000C9F70E94880E0C948C0F0C9400001092CB
:1000C000800210928102109282021092830210929A
:1000D000840210928502109286021092870216BC4A
:1000E00085B5826085BDEEE6F0E080818160808329
:1000F00078940895F8945091800240918102309153
:100100008202909183027894652F742F832F089533
:100110001F920F920FB60F9211242F933F934F937C
:100120005F936F937F938F939F93AF932091800200
:100130003091810240918202509183026091840249
:10014000709185028091860290918702A2E00E94C0
:10015000CC0E209380023093810240938202509310
:100160008302609384027093850280938602909349
:100170008702AF919F918F917F916F915F914F9186
:100180003F912F910F900FBE0F901F9018956130E7
:10019000710511F4299A089529980895613071051F
:1001A00011F4289A089528980895EF92FF920F93DA
:1001B0001F93CF93DF938C01E62EEA01F22E60E0CD
:1001C00070E00E94C7008E2D8F718EBD0DB407FEAA
:1001D000FDCFEEB49F2D9150FF2049F03FEF3EBD83
:1001E0000DB407FEFDCF2EB529939150C0F761E005
:1001F00070E0C8010E94C7008E2DDF91CF911F9142
:100200000F91FF90EF9008951F93CF93DF93EC0130
:10021000162F60E070E00E94C7001F711EBD0DB474
:1002200007FEFDCF8EB58FEF8EBD0DB407FEFDCF5F
:100230001EB561E070E0CE010E94C700812FDF9102
:10024000CF911F910895EF92FF920F931F93CF9339
:10025000DF938C01E62EEA01F22E60E070E00E944E
:10026000C7008E2D8F7180628EBD0DB407FEFDCF4D
:10027000EEB49F2D9150FF2041F029912EBD0DB479
:1002800007FEFDCF2EB59150C0F761E070E0C801C8
:100290000E94C7008E2DDF91CF911F910F91FF908B
:1002A000EF9008950F931F93CF93DF93EC01162FD8
:1002B000042F60E070E00E94C7001F7110621EBD35
:1002C0000DB407FEFDCF1EB50EBD0DB407FEFDCF6C
:1002D0008EB561E070E0CE010E94C700812FDF91F2
:1002E000CF911F910F910895DF92EF92FF920F939C
:1002F0001F93CF93DF93EC01D62EE72E0C81142FA2
:10030000041708F4102F8E81811102C0011B01C057
:1003100000E060E070E0CE010E94C70080EA8EBD80
:100320000DB407FEFDCFFEB4912F9150112351F073
:10033000ED2DFE2D21912EBD0DB407FEFDCF2EB566
:100340009150C0F7902F9150002339F01EBC0DB48E
:1003500007FEFDCF2EB59150C8F761E070E0CE01E9
:100360000E94C7008F2DDF91CF911F910F91FF90B9
:10037000EF90DF900895DF92EF92FF920F931F931B
:10038000CF93DF93EC01D62EE72E0C81142F0417A8
:1003900008F4102F8E81811102C0011B01C000E002
:1003A00060E070E0CE010E94C70081E68EBD0DB412
:1003B00007FEFDCFFEB4912F9150112359F0ED2D82
:1003C000FE2D3FEF3EBD0DB407FEFDCF2EB52193B0
:1003D0009150C0F7902F9150002341F02FEF2EBD88
:1003E0000DB407FEFDCF3EB59150C8F761E070E057
:1003F000CE010E94C7008F2DDF91CF911F910F91E9
:10040000FF90EF90DF9008951F93CF93DF93EC015F
:1004100060E070E00E94C70082EE8EBD0DB407FE62
:10042000FDCF1EB561E070E0CE010E94C700812FB4
:10043000DF91CF911F9108951F93CF93DF93EC012C
:1004400060E070E00E94C70081EE8EBD0DB407FE33
:10045000FDCF1EB561E070E0CE010E94C700812F84
:10046000DF91CF911F9108951F93CF93DF93EC01FC
:1004700060E070E00E94C7008FEF8EBD0DB407FEF4
:10048000FDCF1EB561E070E0CE010E94C700812F54
:10049000DF91CF911F9108950E9434020895FC01CD
:1004A0006083418381E08283138280E284831582AA
:1004B0001682108611861286138614861586168675
:1004C00017860895462F603808F04FE765E00E94D0
:1004D00052010895613208F060E2FC0164830895DE
:1004E000CF93DF93EC0160E00E940401482F43604A
:1004F00060E0CE010E94520140E767E0CE010E9419
:100500005201288539854A855B856C857D858E8578
:100510009F85A0E00E94D80E41F0AE01485F5F4F7A
:1005200025E06AE0CE010E942301CE010E94040270
:10053000CE010E941C0261E070E0CE010E94CE005C
:100540008BE28A95F1F70000DF91CF910895CF9368
:10055000DF93EC0160E070E00E94CE00CE010E94CB
:100560001C02CE010E940402DF91CF910895CF9327
:10057000DF93EC0160E00E940401482F4D7F60E0B2
:10058000CE010E945201DF91CF910895FF920F9307
:100590001F93CF93DF93EC018B01F42E60E00E9458
:1005A00004018C7F482F426060E0CE010E9452011E
:1005B00082E38A95F1F74F2DB801CE010E947401B4
:1005C00061E070E0CE010E94CE0085E08A95F1F7EF
:1005D00060E070E0CE010E94CE00DF91CF911F91CC
:1005E0000F91FF9008951F93CF93DF93EC0160E08C
:1005F00070E00E94C70080E68EBD0DB407FEFDCFFF
:100600008EB58FEF8EBD0DB407FEFDCF1EB561E038
:1006100070E0CE010E94C700812FDF91CF911F9122
:100620000895EF92FF920F931F93CF93DF93EC0106
:100630008B010E943402F82E86FBEE24E0F886FF40
:1006400017C00115110541F0282F30E03595279589
:1006500027703327F801208340E467E0CE010E9431
:100660005201F5FE05C040E267E0CE010E94520152
:100670008E2DDF91CF911F910F91FF90EF900895F4
:1006800060E070E00E9411030895CF93DF93EC01C6
:100690000E94BB0167E1CE010E9404018170DF91DD
:1006A000CF910895EF92FF920F931F93CF93DF9313
:1006B0007B018A01E90140E767E00E94520185FB66
:1006C000992790F9F701908384FB992790F9F80115
:1006D000908386FB882780F98883DF91CF911F91D3
:1006E0000F91FF90EF900895CF92DF92EF92FF92DB
:1006F0000F931F93CF93DF9300D01F92CDB7DEB738
:100700008C010E94C6020E947A006B017C0121E0EC
:10071000AE014D5F5F4F68E0C8010E94D500807355
:1007200069F40E947A00AB01BC014C195D096E09A5
:100730007F09443F51406105710548F398012B5FE3
:100740003F4FAE014F5F5F4FBE016E5F7F4FC801ED
:100750000E945203FA80F8018581882329F0C8019C
:100760000E94F302F8018783C8010E94B702C80102
:100770000E941C028F2D0F900F900F90DF91CF9150
:100780001F910F91FF90EF90DF90CF900895EF921F
:10079000FF920F931F93CF93DF93CDB7DEB72897C8
:1007A0000FB6F894DEBF0FBECDBF7C0109831A835C
:1007B0002B833C834D835E836F83788725E0AE0176
:1007C0004F5F5F4F6AE00E94230125E0AE014F5F5B
:1007D0005F4F60E1C7010E942301F701448141326C
:1007E00008F040E261E1C7010E94520128960FB66D
:1007F000F894DEBF0FBECDBFDF91CF911F910F9157
:10080000FF90EF900895BF92CF92DF92EF92FF9208
:100810000F931F93CF93DF93CDB7DEB728970FB613
:10082000F894DEBF0FBECDBF6C01B62EE982FA820E
:100830000B831C832D833E834F83588761110AC02D
:10084000F601E086F186028713872487358746877D
:10085000578706C0F6E0F61728F181E0861768F0A2
:10086000AB2DB0E0AA5FBD4F25E0AE014F5F5F4FFB
:100870006C91C6010E9423010CC0A62FB0E0AA5FB4
:10088000BD4F21E0AE014F5F5F4F6C91C6010E94EA
:100890002301EB2DF0E0E45FFD4F44E06081C601F1
:1008A0000E94520128960FB6F894DEBF0FBECDBF4E
:1008B000DF91CF911F910F91FF90EF90DF90CF903C
:1008C000BF9008951F93CF93DF93EC01162F66E03E
:1008D0000E940401482F497F133011F446600DC077
:1008E000123011F4446009C0113011F4426005C0A7
:1008F000112319F0143009F4466066E0CE010E941D
:100900005201DF91CF911F9108950F931F93CF93C1
:10091000DF93EC01062F66E00E9404011A82182F73
:10092000177D023011F4106205C0013019F481E026
:100930008A831860412F66E0CE010E94520166E072
:10094000CE010E940401181719F01A8280E001C03C
:1009500081E0DF91CF911F910F9108951F93CF9365
:10096000DF93EC01162F60E00E940401482F437FC3
:10097000112329F0113011F4486001C04C6060E08F
:10098000CE010E945201DF91CF911F910895CF9324
:10099000DF93EC010E945F00209A219A0E94940E3E
:1009A00081E00E94A20E80E00E94AC0E84E00E94D2
:1009B000B10E60E070E0CE010E94CE0061E070E018
:1009C000CE010E94C70081EE94E00197F1F700C0CC
:1009D00000004FE464E0CE010E94520163E0CE01CA
:1009E0000E94620462E0CE010E948504882311F017
:1009F00081E08B8360E0CE010E94850462E0CE013D
:100A00000E94AE0440E06CE1CE010E94520140E73A
:100A100067E0CE010E94520160E0CE010E94040115
:100A2000482F406760E0CE010E9452016BE6CE0184
:100A30000E946202CE010E940402CE010E941C02AA
:100A4000DF91CF9108954F7020E1629FB001112492
:100A5000462B64E00E94520108950E94040108950B
:100A60000E94D500089557985898599A5A9A0000AC
:100A700089B15A9800005A9A00005A9800008823B9
:100A8000ACF35998579A08955A9800005A9A000062
:100A90005A9881E28A95F1F700000895882311F0B1
:100AA000589A01C0589859988AB1806F8AB98BB109
:100AB0008F708BB98BB1962F9071892B8BB98BB1BD
:100AC000962F9072892B8BB98BB1962F9074892BAE
:100AD0008BB98BB16078682B6BB90E94440508957F
:100AE000CF93C82F682F80E00E944E056C2F62952F
:100AF000607F80E00E944E05CF9108952FE986E83F
:100B000091E0215080409040E1F700C000008FEF5D
:100B10008AB98BB958985A98599860E380E00E9436
:100B20004E0584E694E00197F1F700C0000060E311
:100B300080E00E944E0592E39A95F1F760E380E031
:100B40000E944E050E94330568E280E00E944E0537
:100B50000E94330588E20E9470050E94330588E0F8
:100B60000E9470050E94330581E00E9470050E947A
:100B7000330586E00E9470050E9433058FE00E94D5
:100B800070050895CF93C82F682F81E00E944E050D
:100B90006C2F6295607F81E00E944E05CF91089591
:100BA0000E94330582E00E94700583EF91E0019777
:100BB000F1F700C0000008950E94330581E00E9413
:100BC000700508950F931F93CF93DF9300D000D04B
:100BD000CDB7DEB7182F062F0E9433051A8219826F
:100BE00020E430E03C832B83E02FF0E0EE0FFF1F8A
:100BF000EC0FFD1F8181810F80680E9470050F90AE
:100C00000F900F900F90DF91CF911F910F9108954A
:100C1000CF93DF93EC010E9433058881882331F064
:100C200021960E94C20589918111FBCFDF91CF915E
:100C300008950F931F93CF93DF93D62FC72F089656
:100C4000880F880F880F0E9470050D2F1C2FC0E0A1
:100C5000D0E0F80181918F010E94C2052196C83031
:100C6000D105B9F7DF91CF911F910F910895DF92D0
:100C7000EF92FF920F931F93CF93DF938C01D62EA9
:100C80004830510544F5EA0121972AF17E01EE0C26
:100C9000FF1C82E0E80EF11CE20EF31EF7019291B8
:100CA00082917F01880F991F880F991F880F991FC4
:100CB000BC01625F7E4FCE0101960E941906802F13
:100CC0000F5F1F4F6D2D0E94E2058C2F8F5F0E94DA
:100CD000C205219718F7DF91CF911F910F91FF90D7
:100CE000EF90DF900895611571058105910539F048
:100CF000DC01CB0100000197A109B109D9F70895E2
:100D0000CF92DF92EF92FF92CF93DF93C82ED92E2E
:100D1000DD201CF487E0C80ED11CD594C794D5946F
:100D2000C794D594C794EE24D7FCE094FE2CC0E081
:100D3000D0E02F9AC701B6010E9473062F98C70111
:100D4000B6010E9473062196CA30D10591F781E25F
:100D50008A95F1F70000DF91CF91FF90EF90DF903F
:100D6000CF9008950F931F93CF93DF93019761F472
:100D7000C0E0D1E00EE011E0899199910E948006D7
:100D8000C017D107C9F70DC0CEE0D1E000E011E0F7
:100D90009A918A91845F91400E948006C017D10782
:100DA000B9F7DF91CF911F910F91089588B182FB20
:100DB000882780F9089560E080E00E94E2050E94A3
:100DC000D606882329F082E192E00E940806089561
:100DD00086E192E00E94080608953A9A3B9A3C9A6E
:100DE000429843984498279A2F980E94DB060895CA
:100DF000EFE6F0E080818D7F8083449A83ED90E37D
:100E00000197F1F700C00000439883ED90E301974C
:100E1000F1F700C00000449883ED90E30197F1F7EB
:100E200000C0000042988081826080830E94DB06BF
:100E300080E090E00E94B2060895EFE6F0E0808145
:100E40008D7F8083429A83ED90E30197F1F700C094
:100E50000000449A83ED90E30197F1F700C0000091
:100E6000439A83ED90E30197F1F700C000004498A6
:100E70008081826080830E94DB0681E090E00E9496
:100E8000B2060895389823B147B181E090E0BC01E3
:100E900002C0660F771F2A95E2F79B0120953095D7
:100EA00050E02423352327B9ECE7F0E020812064CB
:100EB0002083EAE7F0E02081246820831092B302C7
:100EC0001092B20226982E9A539A5B9A1092AF0211
:100ED0001092AE029093B1028093B0020895ECE7B5
:100EE000F0E090818F70907F982B9083EAE7F0E09C
:100EF000808180648083808186FDFDCF2091780091
:100F000030917900822F932F08951E9909C0809106
:100F1000AE029091AF0201969093AF028093AE0221
:100F200021E030E08091AE029091AF02853F914088
:100F300014F420E030E0822F932F08958091B002C6
:100F40009091B102892B99F40E948507019779F459
:100F500081E090E09093B1028093B0021092B502CC
:100F60001092B4025B9A1092AF021092AE020895F2
:100F7000EF92FF920F931F93CF93DF9300D000D097
:100F8000CDB7DEB705E010E0E12CF12C80E00E9447
:100F90006F07E80EF91E01501109C1F79701ADEC7A
:100FA000BCEC0E94C00E969587959695879544EF68
:100FB00051E0849F9001859F300D949F300D112446
:100FC000832F869586958093B2021092B3024AE0F1
:100FD00050E0BE016F5F7F4F90E00E94EA0E61E03B
:100FE0008CE00E94E205CE0101960E9408068FED7A
:100FF0000E94C20583E40E94C2050F900F900F90DB
:101000000F90DF91CF911F910F91FF90EF90089576
:101010001092B5021092B402F8941092B00010929F
:10102000B1001092B2008EE48093B3001092800061
:1010300010928100109285001092840080ED93E060
:10104000909389008093880078941092A90210925E
:10105000A8021092A7021092A6021092A502109266
:10106000A4021092A3021092A2021092AD0210925A
:10107000AC021092AB021092AA0208951092B20034
:101080001092B1001092B000E0E7F0E080818D7F17
:10109000808360E08FE00E94E20580E20E94C2054A
:1010A00008950E94D60681111DC01092B20082E000
:1010B0008093B00085E08093B1001092A30210925B
:1010C000A2021092A5021092A4021092A7021092FE
:1010D000A6021092A9021092A802E0E7F0E0808137
:1010E0008260808308951092850010928400E1E868
:1010F000F0E080818D6080831092B5021092B4027E
:10110000EFE6F0E0808182608083089581E090E0E6
:101110009093AD028093AC021092B5021092B4028B
:101120001092AF021092AE02449808951F920F924F
:101130000FB60F9211242F933F934F935F936F93AA
:101140007F938F939F93AF93BF93EF93FF93809180
:10115000B4029091B50201969093B5028093B402C7
:101160002091B0023091B1022130310549F40B9742
:101170003CF00E9486085B981092B1021092B00277
:101180008091B4029091B5024F9714F00E948608A6
:10119000FF91EF91BF91AF919F918F917F916F914F
:1011A0005F914F913F912F910F900FBE0F901F9025
:1011B0001895CF93DF93CDB7DEB727970FB6F89486
:1011C000DEBF0FBECDBF61E080E00E94E2054AE0D5
:1011D00050E0BE016B5F7F4F8091A4029091A50209
:1011E0000E94EA0E4AE050E0BE016F5F7F4F80919F
:1011F000A6029091A7020E94EA0ECE0105960E94D7
:1012000008068AE30E94C2058091A6029091A70277
:101210000A971CF480E30E94C205CE0101960E9449
:10122000080627960FB6F894DEBF0FBECDBFDF913C
:10123000CF9108956091AA027091AB02660F771F5B
:10124000660F771F660F771F6A517E4F80E090E030
:101250000E94190660E08FE00E94E20580E00E9493
:10126000C2058091AA029091AB020196843091054B
:101270002CF49093AB028093AA0208951092AB02D3
:101280001092AA0208951F920F920FB60F92112486
:101290002F933F934F935F936F937F938F939F937E
:1012A000AF93BF93EF93FF938091A2029091A3021B
:1012B00001969093A3028093A20285369105ECF1EA
:1012C0008091A8029091A90201969093A90280931F
:1012D000A8021092A3021092A2020E941A09809101
:1012E000A8029091A902CC9744F18091A602909116
:1012F000A70201969093A7028093A6021092A902DA
:101300001092A802CC976CF08091A4029091A50253
:1013100001969093A5028093A4021092A7021092C6
:10132000A6020E94D9088091A4029091A50202977A
:1013300024F00E94F8060E943E08FF91EF91BF91B1
:10134000AF919F918F917F916F915F914F913F915D
:101350002F910F900FBE0F901F90189581E090E095
:10136000909391028093900208950F931F93CF93CF
:10137000DF938C01181619064CF4C0E0D0E08FEF13
:101380000E94C2052196C017D107C9F7DF91CF91FE
:101390001F910F910895359B0EC010928F021092ED
:1013A0008E0280918C0290918D02019690938D0215
:1013B00080938C020DC010928D0210928C0280914D
:1013C0008E0290918F02019690938F0280938E02ED
:1013D00021E030E080918E0290918F028C3291401A
:1013E00014F420E030E0822F932F0895CF92DF9203
:1013F000EF92FF92CF93DF93CDB7DEB72A970FB668
:10140000F894DEBF0FBECDBF6A017B01009729F4BF
:1014100060E084E00E94E20506C0019721F461E0EB
:1014200084E00E94E20520E130E0AE014F5F5F4FB3
:10143000C701B6010E940B0FCE0101960E9408065B
:101440002A960FB6F894DEBF0FBECDBFDF91CF91C5
:10145000FF90EF90DF90CF900895CF92DF92EF92C0
:10146000FF920F931F93CF93DF9300D000D0CDB79F
:10147000DEB769837A838B839C8389EF90E0019741
:10148000F1F700C0000082E992E00E94A70206E0A6
:1014900010E001501109D1F4C12CD12C76010BC000
:1014A00049815A816B817C8181E090E00E94F6093C
:1014B0008C2D9D2D23C082E992E00E9470028091C4
:1014C000880290918902019799F7EACF44E0BE0122
:1014D0006F5F7F4F82E992E00E947403C82ED12C87
:1014E000E12CF12C87E893E10197F1F700C00000AF
:1014F000C114D104E104F104F1F6CBCF0F900F90A9
:101500000F900F90DF91CF911F910F91FF90EF906F
:10151000DF90CF9008958F929F92AF92BF92CF921B
:10152000DF92EF92FF920F931F93CF93DF9300D040
:1015300000D0CDB7DEB70E94CB09892BE1F08091B6
:101540008A0290918B02892BD1F40E94D6068823BF
:1015500029F00E94F8060E943E0806C00E94510829
:101560000E941D070E94D90881E090E090938B02B1
:1015700080938A0204C010928B0210928A020E9409
:101580009E078091AC029091AD02892B31F00E94B0
:10159000B8071092AD021092AC0282E992E00E946C
:1015A0004003882309F41FC144E0BE016F5F7F4FF1
:1015B00082E992E00E944503E7E8F3E13197F1F711
:1015C00000C00000882381F3C980DA80EB80FC80B2
:1015D00046015701072E7CE1B694A794979487940F
:1015E0007A95D1F7702D182D8091880290918902FB
:1015F000019761F4FFEFCF16DF06EF06FF0631F02B
:10160000B701A60180E090E00E94F609212F30E0AA
:1016100080919002909191022817390709F0E1C05A
:10162000113009F0E0C08F2D9927AA27BB278F70B2
:101630009927AA27BB278C3009F0D5C08C2D8F7035
:101640000B2EB7E1F694E794D794C794BA95D1F7E7
:10165000B02DC0FE22C0882321F0813009F0C3C024
:101660000DC069817A818B819C810E942D0A0E9424
:101670003E080E94AE090E94F806B5C069817A81D1
:101680008B819C810E942D0A0E94AE090E94510804
:101690000E941D070E94D908A6C0863051F118F497
:1016A000882341F0A0C0883009F47BC08F3009F056
:1016B0009AC065C00E94D606409190025091910256
:1016C000662757FD6095762F032E3CE1440F551F8A
:1016D000661F771F3A95D1F7302D7C6081708A01A3
:1016E0009B01082BC901B8010E942D0A0E94AE0976
:1016F0007AC06091A6027091A7026F737727CB0121
:10170000AA2797FDA095BA2FBC60072E7CE1880C14
:10171000991CAA1CBB1C7A95D1F7702D882A992A8E
:10172000AA2ABB2A8091A4029091A50287709927CA
:10173000AA2797FDA095BA2F880F991FAA1FBB1F34
:10174000880F991FAA1FBB1F880F991FAA1FBB1FB5
:10175000880F991FAA1FBB1F880F991FAA1FBB1FA5
:10176000880F991FAA1FBB1FBC01CD0168297929C9
:101770008A299B290E942D0A0E94AE0934C0072E97
:101780007CE1880C991CAA1CBB1C7A95D1F7702DA2
:10179000C501B40161609C600E942D0A0E94AE09DF
:1017A00022C06091B2027091B3026F777727CB01AC
:1017B000AA2797FDA095BA2FBC60072E7CE1880C64
:1017C000991CAA1CBB1C7A95D1F7702DBC01CD01C8
:1017D000682979298A299B290E942D0A0E94AE092D
:1017E00002C00E94AE090F900F900F900F90DF91F2
:1017F000CF911F910F91FF90EF90DF90CF90BF900E
:10180000AF909F908F9008951F93CF93DF9300D058
:101810001F92CDB7DEB7162F0E940806612F82E90E
:1018200092E00E942D0540E150E0BE016F5F7F4FC6
:1018300090E00E94300FCE0101960E9408060F90A2
:101840000F900F90DF91CF911F9108950F931F93E9
:10185000CF93DF9382E992E00E944C02082F8AE145
:1018600092E00E940806C7E0D0E010E098010C2E3C
:1018700002C0359527950A94E2F720FF04C081E362
:101880000E94C20503C080E30E94C205219770F741
:10189000DF91CF911F910F910895EF92FF920F93D7
:1018A0001F93CF93DF93CDB7DEB728970FB6F89489
:1018B000DEBF0FBECDBF25E0EE24E394F12CEC0E8D
:1018C000FD1EA701682F82E992E00E94300582E2A6
:1018D00092E00E9408068E010A5F1F4F40E150E02F
:1018E000BE016A5F7F4FF80182918F0190E00E94F4
:1018F000300FCE0106960E9408060E151F0571F7DF
:1019000028960FB6F894DEBF0FBECDBFDF91CF9102
:101910001F910F91FF90EF9008950F931F93CF9316
:10192000DF93CDB7DEB766970FB6F894DEBF0FBE74
:10193000CDBF0E94DC0587E893E10197F1F700C075
:10194000000086E090E00E94B5098E010F5F1F4FF6
:101950008AE0F80111928A95E9F784E190E09A8390
:1019600089838BE090E09C838B8385E090E09E836D
:101970008D8387E190E098878F8382E090E09C8759
:101980008B8781E090E09E878D8789E090E0988B3F
:101990008F876EE171E085E090E00E9419066D8509
:1019A0007E85660F771F660F771F660F771F625F52
:1019B0007E4F86E090E00E9419066F857889660F59
:1019C000771F660F771F660F771F625F7E4F87E076
:1019D00090E00E941906980144E050E060E070E059
:1019E00086E090E00E94370686E090E00E94B5090C
:1019F0000E94D00561E080E00E94E20587E090E06F
:101A00000E94B50961E087E00E94E20587E00E943C
:101A1000C20561E088E00E94E20586E00E94C205FE
:101A200061E089E00E94E20585E00E94C20586E04F
:101A300090E00E94B509FFED23E984E0F1502040D9
:101A40008040E1F700C000000E94D0051092AB0278
:101A50001092AA020E941A099FE9E6E8F1E091506B
:101A6000E040F040E1F700C000000E941A092FE9B1
:101A700086E891E0215080409040E1F700C00000EE
:101A80000E941A09EFE9F6E821E0E150F040204019
:101A9000E1F700C000000E941A098FE996E8E1E032
:101AA00081509040E040E1F700C000000E94DC055A
:101AB00085E292E00E94080680E20E94C2058CE264
:101AC00092E00E94080682E392E00E94080661E02C
:101AD00080E00E94E20587E392E00E94080682E42B
:101AE00092E00E940806FFED23E984E0F1502040D7
:101AF0008040E1F700C000000E94DC054AE050E0B1
:101B0000BE016D5E7F4F8CE090E00E94EA0E87E49C
:101B100092E00E940806CE0143960E9408069FEDBF
:101B2000E3E9F4E09150E040F040E1F700C000004C
:101B30000E94DC058FE492E00E9408068AE00E9481
:101B40004D0C61E080E00E94E20584E592E00E9495
:101B500008068BE00E944D0C2FED83E994E02150A4
:101B600080409040E1F700C000000E94DC0589E55C
:101B700092E00E94080680E10E944D0C61E080E046
:101B80000E94E20562E08EE592E00E94040CEFED17
:101B9000F3E924E0E150F0402040E1F700C000000C
:101BA0000E94DC0561E181E592E00E94040C62E1A3
:101BB00085E692E00E94040C63E189E692E00E94CF
:101BC000040C61E080E00E94E20564E18DE692E0B1
:101BD0000E94040C65E180E792E00E94040C66E13B
:101BE00084E792E00E94040C8FED93E9E4E08150D9
:101BF0009040E040E1F700C000000E94DC0560E09A
:101C000088E792E00E94040C61E080E00E94E20517
:101C10000E94260CFFED23E984E0F1502040804033
:101C2000E1F700C000000E94DC0566960FB6F8944C
:101C3000DEBF0FBECDBFDF91CF911F910F910895F1
:101C4000EF92FF920F931F930E947E050E94D00592
:101C50000E94ED0682E992E00E94C7044FE06FE027
:101C600082E992E00E94230564E082E992E00E940A
:101C70006A026BE682E992E00E94620263E082E916
:101C800092E00E94620402ED10EF20EF30EF40EF8F
:101C900050E060E070E082E992E00E94C7030F2EFE
:101CA000F1EEEF2EF02D0F2EF0EFFF2EF02D00EFC6
:101CB00020EF30E040E050E061E082E992E00E94F5
:101CC000030482E992E00E9470020E94AE090E9421
:101CD00008080E9442073D98459A10928F02109280
:101CE0008E0210928D0210928C0210928B02109232
:101CF0008A0281E090E090938902809388020E949A
:101D00008D0C0E9473081F910F91FF90EF90089522
:101D10000E94200E0E948B0AFDCF40E060E082E925
:101D200092E00E944F02089584B18C6284B9249895
:101D300085B1846185B985B1877D85B98CB58065AC
:101D40008CBD0895811104C08CB580628CBD08954E
:101D50008CB58F7D8CBD08959CB5937F892B8CBDF0
:101D600008959CB5282F23709C7F922B9CBD2DB588
:101D700082FB992790F9822F8E7F892B8DBD089544
:101D8000A29FB001B39FC001A39F01D0B29F700D6D
:101D9000811D1124911D08950024A7FD00942A0F90
:101DA000301D401D501D601D701D801D901D08952B
:101DB0000024A7FD00942A17300540055005600552
:101DC0007005800590050895EE0FFF1F0590F491B2
:101DD000E02D0994FB019F01E8944230C4F04532A4
:101DE000B4F44A3029F497FB1EF4909581959F4FE7
:101DF000642F77270E94560F805D8A330CF0895D2F
:101E00008193CB010097A1F716F45DE25193108204
:101E1000C9010C94460FFA01CF93FF93EF93223040
:101E2000CCF02532BCF4C22F2C2F33274427552762
:101E3000FF93EF930E946A0FEF91FF91605D6A3309
:101E40000CF0695D6193B901CA0160507040804037
:101E5000904051F710828F919F91CF910C94460F33
:101E6000FB019F01423074F0453264F4642F772700
:101E70000E94560F805D8A330CF0895D8193CB01FF
:101E80000097A1F71082C9010C94460FDC01FC01F8
:101E9000672F71917723E1F7329704C07C916D939E
:101EA00070836291AE17BF07C8F30895AA1BBB1BCE
:101EB00051E107C0AA1FBB1FA617B70710F0A61B4A
:101EC000B70B881F991F5A95A9F780959095BC016B
:101ED000CD010895A1E21A2EAA1BBB1BFD010DC066
:101EE000AA1FBB1FEE1FFF1FA217B307E407F507CA
:101EF00020F0A21BB30BE40BF50B661F771F881FA6
:101F0000991F1A9469F760957095809590959B013B
:0C1F1000AC01BD01CF010895F894FFCF93
:101F1C0088139411A00FAC0DB80BC409D00713197A
:101F2C000D16131119001E1E0202021F1F001F1F87
:101F3C00011F1F1111001F1F0202020202001F1FAE
:101F4C0001011111110003030101010101001F1F07
:101F5C000406020604001F1F1111111111001317A2
:101F6C001511111F1F0003030100000000001F1FAB
:101F7C000101011F1F00101F1F0101021C00101C7A
:101F8C001E131111170007070101011F1F001F1F4E
:101F9C00111111110E001B1B090D051F1F001F1F16
:101FAC00090D011F1F001B0D0603011F1F001F1F22
:101FBC000101111316101F1F01010101010015155C
:101FCC00151D111F1F000F0F0909091919000F0FFB
:101FDC000101010101011F1F1111111F1F0003033A
:101FEC000101010101011F1F1119190101011B0937
:101FFC000D0603010101120912081111111F09121A
:10200C00090211111F1F12091208111F1F1F09129B
:10201C0009001F1F1F1F0A0B0C0D0E0F111213149A
:10202C0015164F6E20004F666600537461747573FD
:10203C003A00307800426F696C657200536C6176BF
:10204C006500204D6F64004669726D776172653A68
:10205C002000322E3031004D792049443A20005274
:10206C0058303A005258313A005458203A00454EF4
:10207C005F52583A0020313A0020323A00333A008D
:10208C0020343A0020353A00436F6E6669673A0097
:00000001FF
