:100000000C9435000C945D000C945D000C945D0024
:100010000C945D000C945D000C945D000C94F80849
:100020000C945D000C945D000C945D000C943C08F5
:100030000C945D000C945D000C945D000C945D00CC
:100040000C9488000C945D000C945D000C945D0091
:100050000C945D000C945D000C945D000C945D00AC
:100060000C945D000C945D003B0D11241FBECFEF7E
:10007000D8E0DEBFCDBF11E0A0E0B1E0EAEEFBE1E9
:1000800002C005900D92A439B107D9F721E0A4E987
:10009000B1E001C01D92A83CB207E1F710E0CAE64A
:1000A000D0E004C02297FE010E94940DC836D1070B
:1000B000C9F70E94360D0C94F30D0C9400001092B9
:1000C000940110929501109296011092970110924E
:1000D00098011092990110929A0110929B0116BCFE
:1000E00085B5826085BDEEE6F0E080818160808329
:1000F00078940895F894509194014091950130912D
:100100009601909197017894652F742F832F08950D
:100110001F920F920FB60F9211242F933F934F937C
:100120005F936F937F938F939F93AF9320919401ED
:1001300030919501409196015091970160919801FD
:100140007091990180919A0190919B01A2E00E9487
:100150007A0D20939401309395014093960150932A
:100160009701609398017093990180939A019093FD
:100170009B01AF919F918F917F916F915F914F9173
:100180003F912F910F900FBE0F901F9018956130E7
:10019000710511F4299A089529980895613071051F
:1001A00011F4289A089528980895EF92FF920F93DA
:1001B0001F93CF93DF938C01E62EEA01F22E60E0CD
:1001C00070E00E94C7008E2D8F718EBD0DB407FEAA
:1001D000FDCFEEB49F2D9150FF2049F03FEF3EBD83
:1001E0000DB407FEFDCF2EB529939150C0F761E005
:1001F00070E0C8010E94C7008E2DDF91CF911F9142
:100200000F91FF90EF9008951F93CF93DF93EC0130
:10021000162F60E070E00E94C7001F711EBD0DB474
:1002200007FEFDCF8EB58FEF8EBD0DB407FEFDCF5F
:100230001EB561E070E0CE010E94C700812FDF9102
:10024000CF911F910895EF92FF920F931F93CF9339
:10025000DF938C01E62EEA01F22E60E070E00E944E
:10026000C7008E2D8F7180628EBD0DB407FEFDCF4D
:10027000EEB49F2D9150FF2041F029912EBD0DB479
:1002800007FEFDCF2EB59150C0F761E070E0C801C8
:100290000E94C7008E2DDF91CF911F910F91FF908B
:1002A000EF9008950F931F93CF93DF93EC01162FD8
:1002B000042F60E070E00E94C7001F7110621EBD35
:1002C0000DB407FEFDCF1EB50EBD0DB407FEFDCF6C
:1002D0008EB561E070E0CE010E94C700812FDF91F2
:1002E000CF911F910F910895DF92EF92FF920F939C
:1002F0001F93CF93DF93EC01D62EE72E0C81142FA2
:10030000041708F4102F8E81811102C0011B01C057
:1003100000E060E070E0CE010E94C70080EA8EBD80
:100320000DB407FEFDCFFEB4912F9150112351F073
:10033000ED2DFE2D21912EBD0DB407FEFDCF2EB566
:100340009150C0F7902F9150002339F01EBC0DB48E
:1003500007FEFDCF2EB59150C8F761E070E0CE01E9
:100360000E94C7008F2DDF91CF911F910F91FF90B9
:10037000EF90DF900895DF92EF92FF920F931F931B
:10038000CF93DF93EC01D62EE72E0C81142F0417A8
:1003900008F4102F8E81811102C0011B01C000E002
:1003A00060E070E0CE010E94C70081E68EBD0DB412
:1003B00007FEFDCFFEB4912F9150112359F0ED2D82
:1003C000FE2D3FEF3EBD0DB407FEFDCF2EB52193B0
:1003D0009150C0F7902F9150002341F02FEF2EBD88
:1003E0000DB407FEFDCF3EB59150C8F761E070E057
:1003F000CE010E94C7008F2DDF91CF911F910F91E9
:10040000FF90EF90DF9008951F93CF93DF93EC015F
:1004100060E070E00E94C70082EE8EBD0DB407FE62
:10042000FDCF1EB561E070E0CE010E94C700812FB4
:10043000DF91CF911F9108951F93CF93DF93EC012C
:1004400060E070E00E94C70081EE8EBD0DB407FE33
:10045000FDCF1EB561E070E0CE010E94C700812F84
:10046000DF91CF911F9108951F93CF93DF93EC01FC
:1004700060E070E00E94C7008FEF8EBD0DB407FEF4
:10048000FDCF1EB561E070E0CE010E94C700812F54
:10049000DF91CF911F9108950E9434020895FC01CD
:1004A0006083418381E08283138280E284831582AA
:1004B0001682108611861286138614861586168675
:1004C00017860895462F603808F04FE765E00E94D0
:1004D00052010895613208F060E2FC0164830895DE
:1004E000CF93DF93EC0160E00E940401482F43604A
:1004F00060E0CE010E94520140E767E0CE010E9419
:100500005201288539854A855B856C857D858E8578
:100510009F85A0E00E94860D41F0AE01485F5F4FCD
:1005200025E06AE0CE010E942301CE010E94040270
:10053000CE010E941C0261E070E0CE010E94CE005C
:100540008BE28A95F1F70000DF91CF910895CF9368
:10055000DF93EC0160E070E00E94CE00CE010E94CB
:100560001C02CE010E940402DF91CF910895CF9327
:10057000DF93EC0160E00E940401482F4D7F60E0B2
:10058000CE010E945201DF91CF910895FF920F9307
:100590001F93CF93DF93EC018B01F42E60E00E9458
:1005A00004018C7F482F426060E0CE010E9452011E
:1005B00082E38A95F1F74F2DB801CE010E947401B4
:1005C00061E070E0CE010E94CE0085E08A95F1F7EF
:1005D00060E070E0CE010E94CE00DF91CF911F91CC
:1005E0000F91FF9008951F93CF93DF93EC0160E08C
:1005F00070E00E94C70080E68EBD0DB407FEFDCFFF
:100600008EB58FEF8EBD0DB407FEFDCF1EB561E038
:1006100070E0CE010E94C700812FDF91CF911F9122
:100620000895EF92FF920F931F93CF93DF93EC0106
:100630008B010E943402F82E86FBEE24E0F886FF40
:1006400017C00115110541F0282F30E03595279589
:1006500027703327F801208340E467E0CE010E9431
:100660005201F5FE05C040E267E0CE010E94520152
:100670008E2DDF91CF911F910F91FF90EF900895F4
:1006800060E070E00E9411030895CF93DF93EC01C6
:100690000E94BB0167E1CE010E9404018170DF91DD
:1006A000CF910895EF92FF920F931F93CF93DF9313
:1006B0007B018A01E90140E767E00E94520185FB66
:1006C000992790F9F701908384FB992790F9F80115
:1006D000908386FB882780F98883DF91CF911F91D3
:1006E0000F91FF90EF900895CF92DF92EF92FF92DB
:1006F0000F931F93CF93DF9300D01F92CDB7DEB738
:100700008C010E94C6020E947A006B017C0121E0EC
:10071000AE014D5F5F4F68E0C8010E94D500807355
:1007200069F40E947A00AB01BC014C195D096E09A5
:100730007F09443F51406105710548F398012B5FE3
:100740003F4FAE014F5F5F4FBE016E5F7F4FC801ED
:100750000E945203FA80F8018581882329F0C8019C
:100760000E94F302F8018783C8010E94B702C80102
:100770000E941C028F2D0F900F900F90DF91CF9150
:100780001F910F91FF90EF90DF90CF900895EF921F
:10079000FF920F931F93CF93DF93CDB7DEB72897C8
:1007A0000FB6F894DEBF0FBECDBF7C0109831A835C
:1007B0002B833C834D835E836F83788725E0AE0176
:1007C0004F5F5F4F6AE00E94230125E0AE014F5F5B
:1007D0005F4F60E1C7010E942301F701448141326C
:1007E00008F040E261E1C7010E94520128960FB66D
:1007F000F894DEBF0FBECDBFDF91CF911F910F9157
:10080000FF90EF900895BF92CF92DF92EF92FF9208
:100810000F931F93CF93DF93CDB7DEB728970FB613
:10082000F894DEBF0FBECDBF6C01B62EE982FA820E
:100830000B831C832D833E834F83588761110AC02D
:10084000F601E086F186028713872487358746877D
:10085000578706C0F6E0F61728F181E0861768F0A2
:10086000AB2DB0E0A25FBE4F25E0AE014F5F5F4F02
:100870006C91C6010E9423010CC0A62FB0E0A25FBC
:10088000BE4F21E0AE014F5F5F4F6C91C6010E94E9
:100890002301EB2DF0E0EC5EFE4F44E06081C601E9
:1008A0000E94520128960FB6F894DEBF0FBECDBF4E
:1008B000DF91CF911F910F91FF90EF90DF90CF903C
:1008C000BF9008951F93CF93DF93EC01162F66E03E
:1008D0000E940401482F497F133011F446600DC077
:1008E000123011F4446009C0113011F4426005C0A7
:1008F000112319F0143009F4466066E0CE010E941D
:100900005201DF91CF911F9108950F931F93CF93C1
:10091000DF93EC01062F66E00E9404011A82182F73
:10092000177D023011F4106205C0013019F481E026
:100930008A831860412F66E0CE010E94520166E072
:10094000CE010E940401181719F01A8280E001C03C
:1009500081E0DF91CF911F910F9108951F93CF9365
:10096000DF93EC01162F60E00E940401482F437FC3
:10097000112329F0113011F4486001C04C6060E08F
:10098000CE010E945201DF91CF911F910895CF9324
:10099000DF93EC010E945F00209A219A0E94420D91
:1009A00081E00E94500D80E00E945A0D84E00E9478
:1009B0005F0D60E070E0CE010E94CE0061E070E06B
:1009C000CE010E94C70081EE94E00197F1F700C0CC
:1009D00000004FE464E0CE010E94520163E0CE01CA
:1009E0000E94620462E0CE010E948504882311F017
:1009F00081E08B8360E0CE010E94850462E0CE013D
:100A00000E94AE0440E06CE1CE010E94520140E73A
:100A100067E0CE010E94520160E0CE010E94040115
:100A2000482F406760E0CE010E9452016BE6CE0184
:100A30000E946202CE010E940402CE010E941C02AA
:100A4000DF91CF9108954F7020E1629FB001112492
:100A5000462B64E00E94520108950E94040108950B
:100A60000E94D500089557985898599A5A9A0000AC
:100A700089B15A9800005A9A00005A9800008823B9
:100A8000ACF35998579A08955A9800005A9A000062
:100A90005A9881E28A95F1F700000895882311F0B1
:100AA000589A01C0589859988AB1806F8AB98BB109
:100AB0008F708BB98BB1962F9071892B8BB98BB1BD
:100AC000962F9072892B8BB98BB1962F9074892BAE
:100AD0008BB98BB16078682B6BB90E94440508957F
:100AE000CF93C82F682F80E00E944E056C2F62952F
:100AF000607F80E00E944E05CF9108952FE986E83F
:100B000091E0215080409040E1F700C000008FEF5D
:100B10008AB98BB958985A98599860E380E00E9436
:100B20004E0584E694E00197F1F700C0000060E311
:100B300080E00E944E0592E39A95F1F760E380E031
:100B40000E944E050E94330568E280E00E944E0537
:100B50000E94330588E20E9470050E94330588E0F8
:100B60000E9470050E94330581E00E9470050E947A
:100B7000330586E00E9470050E9433058CE00E94D8
:100B800070050895CF93C82F682F81E00E944E050D
:100B90006C2F6295607F81E00E944E05CF91089591
:100BA0000E94330582E00E94700583EF91E0019777
:100BB000F1F700C0000008950E94330581E00E9413
:100BC000700508950F931F93CF93DF9300D000D04B
:100BD000CDB7DEB7182F062F0E9433051A8219826F
:100BE00020E430E03C832B83E02FF0E0EE0FFF1F8A
:100BF000EC0FFD1F8181810F80680E9470050F90AE
:100C00000F900F900F90DF91CF911F910F9108954A
:100C1000CF93DF93EC010E9433058881882331F064
:100C200021960E94C20589918111FBCFDF91CF915E
:100C30000895611571058105910539F0DC01CB013D
:100C400000000197A109B109D9F70895CF92DF9269
:100C5000EF92FF92CF93DF93C82ED92EDD201CF4A4
:100C600087E0C80ED11CD594C794D594C794D59469
:100C7000C794EE24D7FCE094FE2CC0E0D0E02F9A7D
:100C8000C701B6010E9419062F98C701B6010E943C
:100C900019062196CA30D10591F781E28A95F1F7BC
:100CA0000000DF91CF91FF90EF90DF90CF900895FB
:100CB0000F931F93CF93DF93019761F4C0E0D1E0CE
:100CC0000EE011E0899199910E942606C017D10784
:100CD000C9F70DC0CEE0D1E000E011E09A918A9111
:100CE000845F91400E942606C017D107B9F7DF91B3
:100CF000CF911F910F91089588B182FB882780F9C9
:100D0000089560E080E00E94E2050E947C0688234E
:100D100029F08AE191E00E94080608958EE191E0B1
:100D20000E94080608953A9A3B9A3C9A4298439842
:100D30004498279A2F980E9481060895EFE6F0E0E4
:100D400080818D7F8083449A83ED90E30197F1F752
:100D500000C00000439883ED90E30197F1F700C0D5
:100D60000000449883ED90E30197F1F700C0000084
:100D700042988081826080830E94810680E090E0BA
:100D80000E9458060895EFE6F0E080818D7F808311
:100D9000429A83ED90E30197F1F700C00000449A76
:100DA00083ED90E30197F1F700C00000439A83EDD3
:100DB00090E30197F1F700C00000449880818260C1
:100DC00080830E94810681E090E00E945806089589
:100DD000389823B147B181E090E0BC0102C0660FB2
:100DE000771F2A95E2F79B012095309550E0242348
:100DF000352327B9ECE7F0E0208120642083EAE77F
:100E0000F0E02081246820831092C5011092C40173
:100E100026982E9A539A5B9A1092C1011092C001A3
:100E20009093C3018093C2010895ECE7F0E09081B4
:100E30008F70907F982B9083EAE7F0E08081806448
:100E40008083808186FDFDCF2091780030917900EC
:100E5000822F932F08951E9909C08091C00190910F
:100E6000C10101969093C1018093C00121E030E05F
:100E70008091C0019091C101853F914014F420E020
:100E800030E0822F932F08958091C2019091C30189
:100E9000892B99F40E942B07019779F481E090E067
:100EA0009093C3018093C2011092C7011092C601B2
:100EB0005B9A1092C1011092C0010895EF92FF92C7
:100EC0000F931F93CF93DF9300D000D0CDB7DEB741
:100ED00005E010E0E12CF12C80E00E941507E80EFF
:100EE000F91E01501109C1F79701ADECBCEC0E944D
:100EF0006E0D969587959695879544EF51E0849F62
:100F00009001859F300D949F300D1124832F86957D
:100F100086958093C4011092C5014AE050E0BE015D
:100F20006F5F7F4F90E00E94980D61E08CE00E941F
:100F3000E205CE0101960E9408068FED0E94C205CF
:100F400083E40E94C2050F900F900F900F90DF91E5
:100F5000CF911F910F91FF90EF9008951092C701CC
:100F60001092C601F8941092B0001092B100109245
:100F7000B2008EE48093B300109280001092810042
:100F8000109285001092840080ED93E09093890088
:100F90008093880078941092BB011092BA0110924D
:100FA000B9011092B8011092B7011092B6011092D7
:100FB000B5011092B4011092BF011092BE011092BF
:100FC000BD011092BC0108951092B2001092B100C0
:100FD0001092B000E0E7F0E080818D7F808360E0D8
:100FE0008FE00E94E20580E20E94C20508950E94FF
:100FF0007C0681111DC01092B20082E08093B00087
:1010000085E08093B1001092B5011092B401109266
:10101000B7011092B6011092B9011092B801109266
:10102000BB011092BA01E0E7F0E08081826080832A
:1010300008951092850010928400E1E8F0E080812C
:101040008D6080831092C7011092C601EFE6F0E038
:10105000808182608083089581E090E09093BF0159
:101060008093BE011092C7011092C6011092C10177
:101070001092C001449808951F920F920FB60F92DC
:1010800011242F933F934F935F936F937F938F938D
:101090009F93AF93BF93EF93FF938091C60190917D
:1010A000C70101969093C7018093C6012091C201A8
:1010B0003091C3012130310549F40B973CF00E9477
:1010C0002C085B981092C3011092C2018091C60156
:1010D0009091C7014F9714F00E942C08FF91EF9157
:1010E000BF91AF919F918F917F916F915F914F9140
:1010F0003F912F910F900FBE0F901F901895CF9397
:10110000DF93CDB7DEB727970FB6F894DEBF0FBEDB
:10111000CDBF61E080E00E94E2054AE050E0BE0100
:101120006B5F7F4F8091B6019091B7010E94980D3F
:101130004AE050E0BE016F5F7F4F8091B80190910F
:10114000B9010E94980DCE0105960E9408068AE317
:101150000E94C2058091B8019091B9010A971CF4D0
:1011600080E30E94C205CE0101960E9408062796E0
:101170000FB6F894DEBF0FBECDBFDF91CF910895BB
:101180008091BC019091BD010196853091052CF4B0
:101190009093BD018093BC0106C081E090E09093E4
:1011A000BD018093BC0160E08FE00E94E205809168
:1011B000BC019091BD018230910571F01CF4019742
:1011C000B1F406C08330910559F0049781F40CC046
:1011D0008FE20E94C20508958DE20E94C205089523
:1011E0008CE50E94C20508958CE70E94C20508950F
:1011F0001F920F920FB60F9211242F933F934F938C
:101200005F936F937F938F939F93AF93BF93EF936E
:10121000FF938091B4019091B50101969093B5012F
:101220008093B40185369105ECF18091BA019091DB
:10123000BB0101969093BB018093BA011092B50156
:101240001092B4010E94C0088091BA019091BB0134
:10125000CC9744F18091B8019091B9010196909397
:10126000B9018093B8011092BB011092BA01CC97DA
:101270006CF08091B6019091B70101969093B701FF
:101280008093B6011092B9011092B8010E947F08B4
:101290008091B6019091B701029724F00E949E06BA
:1012A0000E94E407FF91EF91BF91AF919F918F91C1
:1012B0007F916F915F914F913F912F910F900FBE52
:1012C0000F901F90189581E090E09093A301809378
:1012D000A20108950F931F93CF93DF938C011816EB
:1012E00019064CF4C0E0D0E08FEF0E94C2052196B1
:1012F000C017D107C9F7DF91CF911F910F910895C2
:10130000359B0EC01092A1011092A00180919E0108
:1013100090919F01019690939F0180939E010DC033
:1013200010929F0110929E018091A0019091A101C5
:1013300001969093A1018093A00121E030E080917B
:10134000A0019091A1018C32914014F420E030E092
:10135000822F932F0895CF92DF92EF92FF920F93F7
:101360001F93CF93DF9300D000D0CDB7DEB7698352
:101370007A838B839C8389EF90E00197F1F700C01B
:10138000000084EA91E00E94A70206E010E001500C
:10139000110951F4C12CD12C760184EA91E00E940C
:1013A00070028C2D9D2D18C044E0BE016F5F7F4FF1
:1013B00084EA91E00E947403C82ED12CE12CF12C18
:1013C00087E893E10197F1F700C00000C114D10450
:1013D000E104F10411F7DBCF0F900F900F900F9005
:1013E000DF91CF911F910F91FF90EF90DF90CF9001
:1013F0000895CF92DF92EF92FF920F931F93CF93B6
:10140000DF9300D000D0CDB7DEB70E948009892BD2
:10141000E1F080919C0190919D01892BD1F40E9473
:101420007C06882329F00E949E060E94E40706C0DD
:101430000E94F7070E94C3060E947F0881E090E0A7
:1014400090939D0180939C0104C010929D01109285
:101450009C010E9444078091BE019091BF01892B9D
:1014600031F00E945E071092BF011092BE0184EA23
:1014700091E00E944003882309F407C144E0BE01C3
:101480006F5F7F4F84EA91E00E944503E7E8F3E154
:101490003197F1F700C00000882381F369817A81D8
:1014A0008B819C818B019C010F2EFCE13695279549
:1014B00017950795FA95D1F7F02DE02FF0E04091C0
:1014C000A2015091A301E417F50709F0DCC0013037
:1014D00009F0DBC0C92EDD24EE24FF24FFE0CF227B
:1014E000DD24EE24FF244CE0C412CFC0462F4F7001
:1014F0006B017C010B2EB7E1F694E794D794C79467
:10150000BA95D1F7B02DC0FE1AC0442321F0413066
:1015100009F0BBC009C00E94AB090E94E4070E9409
:1015200063090E949E06B1C00E94AB090E94630934
:101530000E94F7070E94C3060E947F08A6C046309B
:1015400051F118F4442341F0A0C0483009F47BC0A5
:101550004F3009F09AC065C00E947C064091A201FC
:101560005091A301662757FD6095762F032E3CE12D
:10157000440F551F661F771F3A95D1F7302D7C60B9
:1015800081708A019B01082BC901B8010E94AB0937
:101590000E9463097AC06091B8017091B9016F73BC
:1015A0007727CB01AA2797FDA095BA2FBC600F2EF5
:1015B000FCE1000F111F221F331FFA95D1F7F02D08
:1015C000082B192B2A2B3B2B8091B6019091B70148
:1015D00087709927AA2797FDA095BA2F880F991F82
:1015E000AA1FBB1F880F991FAA1FBB1F880F991F17
:1015F000AA1FBB1F880F991FAA1FBB1F880F991F07
:10160000AA1FBB1F880F991FAA1FBB1FBC01CD01BA
:10161000602B712B822B932B0E94AB090E946309D4
:1016200034C00F2EFCE1000F111F221F331FFA954B
:10163000D1F7F02DC901B80161609C600E94AB092F
:101640000E94630922C06091C4017091C5016F7747
:101650007727CB01AA2797FDA095BA2FBC600F2E44
:10166000FCE1000F111F221F331FFA95D1F7F02D57
:10167000BC01CD01602B712B822B932B0E94AB09F7
:101680000E94630902C00E9463090F900F900F909F
:101690000F90DF91CF911F910F91FF90EF90DF900E
:1016A000CF9008951F93CF93DF9300D01F92CDB7B3
:1016B000DEB7162F0E940806612F84EA91E00E948F
:1016C0002D0540E150E0BE016F5F7F4F90E00E942A
:1016D000B90DCE0101960E9408060F900F900F9051
:1016E000DF91CF911F9108950F931F93CF93DF93B5
:1016F00084EA91E00E944C02082F82E291E00E946D
:101700000806C7E0D0E010E098010C2E02C0359525
:1017100027950A94E2F720FF04C081E30E94C205E6
:1017200003C080E30E94C205219770F7DF91CF913B
:101730001F910F910895EF92FF920F931F93CF93F4
:10174000DF93CDB7DEB728970FB6F894DEBF0FBE94
:10175000CDBF25E0EE24E394F12CEC0EFD1EA70195
:10176000682F84EA91E00E9430058AE291E00E94AD
:1017700008068E010A5F1F4F40E150E0BE016A5F1C
:101780007F4FF80182918F0190E00E94B90DCE0148
:1017900006960E9408060E151F0571F728960FB6CB
:1017A000F894DEBF0FBECDBFDF91CF911F910F9197
:1017B000FF90EF900895CF93DF9300D000D0CDB786
:1017C000DEB70E94DC0587E893E10197F1F700C0DE
:1017D000000085E090E00E946A098DE291E00E949D
:1017E000080684E090E00E946A0961E080E00E94BF
:1017F000E20585E090E00E946A0985E391E00E949D
:10180000080687E090E00E946A099FED23E984E0E2
:10181000915020408040E1F700C000000E94DC05AC
:101820008AE391E00E94080680E20E94C20581E4FA
:1018300091E00E94080687E491E00E94080661E0BA
:1018400080E00E94E2058CE491E00E94080687E5B2
:1018500091E00E9408069FED23E984E0915020402A
:101860008040E1F700C000000E94DC054AE050E043
:10187000BE016F5F7F4F8CE090E00E94980D8BE57A
:1018800091E00E940806CE0101960E9408069FED95
:1018900023E984E0915020408040E1F700C000003F
:1018A0000E94DC0583E691E00E9408068AE00E941F
:1018B0009B0B61E080E00E94E20588E691E00E94D7
:1018C00008068BE00E949B0B9FED23E984E091507A
:1018D00020408040E1F700C000000E94DC058DE65A
:1018E00091E00E94080680E10E949B0B61E080E08D
:1018F0000E94E20562E082E791E00E94520B9FEDB8
:1019000023E984E0915020408040E1F700C00000CE
:101910000E94DC0561E185E691E00E94520B62E1E4
:1019200089E791E00E94520B63E18DE791E00E940C
:10193000520B61E080E00E94E20564E181E891E001
:101940000E94520B65E184E891E00E94520B66E12F
:1019500088E891E00E94520B9FED23E984E09150CA
:1019600020408040E1F700C000000E94DC0560E0FC
:101970008CE891E00E94520B61E080E00E94E20559
:101980000E94740B9FED23E984E091502040804039
:10199000E1F700C000000E94DC050F900F900F904F
:1019A0000F90DF91CF910895EF92FF920F931F93C5
:1019B0000E947E050E94D0050E94930684EA91E071
:1019C0000E94C7044FE06FE084EA91E00E94230583
:1019D00064E084EA91E00E946A026BE684EA91E0A6
:1019E0000E94620263E084EA91E00E94620402EDD8
:1019F00010EF20EF30EF40EF50E060E070E084EA5D
:101A000091E00E94C7030F2EF1EEEF2EF02D0F2E66
:101A1000F0EFFF2EF02D00EF20EF30E040E050E03F
:101A200061E084EA91E00E94030484EA91E00E946C
:101A300070020E9463090E94AE070E94E8063D986A
:101A4000459A1092A1011092A00110929F0110924C
:101A50009E0110929D0110929C010E94DB0B0E943E
:101A600019081F910F91FF90EF9008950E94D40CD8
:101A70000E94F909FDCF40E060E084EA91E00E9415
:101A80004F02089584B18C6284B9249885B1846131
:101A900085B985B1877D85B98CB580658CBD089584
:101AA000811104C08CB580628CBD08958CB58F7D8A
:101AB0008CBD08959CB5937F892B8CBD08959CB5F2
:101AC000282F23709C7F922B9CBD2DB582FB9927DC
:101AD00090F9822F8E7F892B8DBD0895A29FB00132
:101AE000B39FC001A39F01D0B29F700D811D11242F
:101AF000911D08950024A7FD00942A0F301D401D5C
:101B0000501D601D701D801D901D08950024A7FDAF
:101B100000942A17300540055005600570058005C2
:101B200090050895EE0FFF1F0590F491E02D0994A4
:101B3000FB019F01E8944230C4F04532B4F44A30CE
:101B400029F497FB1EF4909581959F4F642F77277A
:101B50000E94DF0D805D8A330CF0895D8193CB019B
:101B60000097A1F716F45DE251931082C9010C941D
:101B7000CF0DFB019F01423074F0453264F4642FB5
:101B800077270E94DF0D805D8A330CF0895D819399
:101B9000CB010097A1F71082C9010C94CF0DDC0195
:101BA000FC01672F71917723E1F7329704C07C9194
:101BB0006D9370836291AE17BF07C8F30895AA1B97
:101BC000BB1B51E107C0AA1FBB1FA617B70710F028
:101BD000A61BB70B881F991F5A95A9F7809590955A
:0A1BE000BC01CD010895F894FFCF79
:101BEA0088139411A00FAC0DB80BC409D0070A0BC7
:101BFA000C0D0E0F1112131415164F6E20004F669E
:101C0A0066005374617475733A0030780057656CD6
:101C1A00636F6D65004761626900426F696C657246
:101C2A0000536C61766500204D6F64004669726DE1
:101C3A00776172653A2000322E30004D792049448E
:101C4A003A20005258303A005258313A005458203B
:101C5A003A00454E5F52583A0020313A0020323A53
:101C6A0000333A0020343A0020353A00436F6E665A
:041C7A0069673A005C
:00000001FF
